{
  "_format": "hh-sol-artifact-1",
  "contractName": "Proxy",
  "sourceName": "contracts/Proxy.sol",
  "abi": [
    {
      "inputs": [],
      "stateMutability": "nonpayable",
      "type": "constructor"
    },
    {
      "stateMutability": "payable",
      "type": "fallback"
    },
    {
      "inputs": [],
      "name": "admin",
      "outputs": [
        {
          "internalType": "address",
          "name": "",
          "type": "address"
        }
      ],
      "stateMutability": "view",
      "type": "function"
    },
    {
      "inputs": [
        {
          "internalType": "address",
          "name": "otherContractAddress",
          "type": "address"
        },
        {
          "internalType": "address",
          "name": "_owner",
          "type": "address"
        }
      ],
      "name": "callInitialize",
      "outputs": [],
      "stateMutability": "nonpayable",
      "type": "function"
    },
    {
      "inputs": [
        {
          "internalType": "address",
          "name": "_admin",
          "type": "address"
        }
      ],
      "name": "changeAdmin",
      "outputs": [],
      "stateMutability": "nonpayable",
      "type": "function"
    },
    {
      "inputs": [
        {
          "internalType": "address",
          "name": "contractAddress",
          "type": "address"
        }
      ],
      "name": "getImplementationOwner",
      "outputs": [
        {
          "internalType": "address",
          "name": "",
          "type": "address"
        }
      ],
      "stateMutability": "view",
      "type": "function"
    },
    {
      "inputs": [],
      "name": "implementation",
      "outputs": [
        {
          "internalType": "address",
          "name": "",
          "type": "address"
        }
      ],
      "stateMutability": "view",
      "type": "function"
    },
    {
      "inputs": [
        {
          "internalType": "address",
          "name": "_implementation",
          "type": "address"
        }
      ],
      "name": "upgradeTo",
      "outputs": [],
      "stateMutability": "nonpayable",
      "type": "function"
    },
    {
      "stateMutability": "payable",
      "type": "receive"
    }
  ],
  "bytecode": "0x608060405234801561001057600080fd5b506100203361002560201b60201c565b610051565b60007f337c729c04082e3bdd94ba7d2b5a8a642f3a138702366a91707825373a2029ba90508181555050565b61086d806100606000396000f3fe6080604052600436106100595760003560e01c80631ab0093a146100725780633659cfe6146100af5780635c60da1b146100d85780638f28397014610103578063d46f7b5e1461012c578063f851a4401461015557610068565b3661006857610066610180565b005b610070610180565b005b34801561007e57600080fd5b5061009960048036038101906100949190610630565b610192565b6040516100a6919061066c565b60405180910390f35b3480156100bb57600080fd5b506100d660048036038101906100d19190610630565b6102e5565b005b3480156100e457600080fd5b506100ed610339565b6040516100fa919061066c565b60405180910390f35b34801561010f57600080fd5b5061012a60048036038101906101259190610630565b610348565b005b34801561013857600080fd5b50610153600480360381019061014e9190610687565b61039c565b005b34801561016157600080fd5b5061016a6104e4565b604051610177919061066c565b60405180910390f35b61019061018b6104f3565b610521565b565b6000806040516024016040516020818303038152906040527f893d20e8000000000000000000000000000000000000000000000000000000007bffffffffffffffffffffffffffffffffffffffffffffffffffffffff19166020820180517bffffffffffffffffffffffffffffffffffffffffffffffffffffffff838183161783525050505090506000808473ffffffffffffffffffffffffffffffffffffffff16836040516102429190610738565b600060405180830381855afa9150503d806000811461027d576040519150601f19603f3d011682016040523d82523d6000602084013e610282565b606091505b5091509150816102c7576040517f08c379a00000000000000000000000000000000000000000000000000000000081526004016102be906107ac565b60405180910390fd5b808060200190518101906102db919061080a565b9350505050919050565b6102ed610547565b73ffffffffffffffffffffffffffffffffffffffff163373ffffffffffffffffffffffffffffffffffffffff160361032d5761032881610575565b610336565b610335610180565b5b50565b60006103436104f3565b905090565b610350610547565b73ffffffffffffffffffffffffffffffffffffffff163373ffffffffffffffffffffffffffffffffffffffff16036103905761038b816105a1565b610399565b610398610180565b5b50565b6000816040516024016103af919061066c565b6040516020818303038152906040527fc4d66de8000000000000000000000000000000000000000000000000000000007bffffffffffffffffffffffffffffffffffffffffffffffffffffffff19166020820180517bffffffffffffffffffffffffffffffffffffffffffffffffffffffff838183161783525050505090506000808473ffffffffffffffffffffffffffffffffffffffff16836040516104569190610738565b6000604051808303816000865af19150503d8060008114610493576040519150601f19603f3d011682016040523d82523d6000602084013e610498565b606091505b5091509150816104dd576040517f08c379a00000000000000000000000000000000000000000000000000000000081526004016104d4906107ac565b60405180910390fd5b5050505050565b60006104ee610547565b905090565b6000807f7050c9e0f4ca769c69bd3a8ef740bc37934f8e2c036e5a723fd8ee048ed3f8c39050805491505090565b3660008037600080366000845af43d6000803e8060008114610542573d6000f35b3d6000fd5b6000807f337c729c04082e3bdd94ba7d2b5a8a642f3a138702366a91707825373a2029ba9050805491505090565b60007f7050c9e0f4ca769c69bd3a8ef740bc37934f8e2c036e5a723fd8ee048ed3f8c390508181555050565b60007f337c729c04082e3bdd94ba7d2b5a8a642f3a138702366a91707825373a2029ba90508181555050565b600080fd5b600073ffffffffffffffffffffffffffffffffffffffff82169050919050565b60006105fd826105d2565b9050919050565b61060d816105f2565b811461061857600080fd5b50565b60008135905061062a81610604565b92915050565b600060208284031215610646576106456105cd565b5b60006106548482850161061b565b91505092915050565b610666816105f2565b82525050565b6000602082019050610681600083018461065d565b92915050565b6000806040838503121561069e5761069d6105cd565b5b60006106ac8582860161061b565b92505060206106bd8582860161061b565b9150509250929050565b600081519050919050565b600081905092915050565b60005b838110156106fb5780820151818401526020810190506106e0565b60008484015250505050565b6000610712826106c7565b61071c81856106d2565b935061072c8185602086016106dd565b80840191505092915050565b60006107448284610707565b915081905092915050565b600082825260208201905092915050565b7f43616c6c206661696c6564000000000000000000000000000000000000000000600082015250565b6000610796600b8361074f565b91506107a182610760565b602082019050919050565b600060208201905081810360008301526107c581610789565b9050919050565b60006107d7826105d2565b9050919050565b6107e7816107cc565b81146107f257600080fd5b50565b600081519050610804816107de565b92915050565b6000602082840312156108205761081f6105cd565b5b600061082e848285016107f5565b9150509291505056fea26469706673582212209879178986dbbab7abde972d63c9d738f1410c0156050c0c51894120495b904664736f6c63430008120033",
  "linkReferences": {},
  "deployedLinkReferences": {}
}