{
  "_format": "hh-sol-artifact-1",
  "contractName": "Proxy",
  "sourceName": "contracts/Proxy.sol",
  "abi": [
    {
      "inputs": [],
      "stateMutability": "nonpayable",
      "type": "constructor"
    },
    {
      "stateMutability": "payable",
      "type": "fallback"
    },
    {
      "inputs": [],
      "name": "admin",
      "outputs": [
        {
          "internalType": "address",
          "name": "",
          "type": "address"
        }
      ],
      "stateMutability": "view",
      "type": "function"
    },
    {
      "inputs": [
        {
          "internalType": "address",
          "name": "otherContractAddress",
          "type": "address"
        },
        {
          "internalType": "address",
          "name": "_owner",
          "type": "address"
        }
      ],
      "name": "callInitialize",
      "outputs": [],
      "stateMutability": "nonpayable",
      "type": "function"
    },
    {
      "inputs": [
        {
          "internalType": "address",
          "name": "_admin",
          "type": "address"
        }
      ],
      "name": "changeAdmin",
      "outputs": [],
      "stateMutability": "nonpayable",
      "type": "function"
    },
    {
      "inputs": [
        {
          "internalType": "address",
          "name": "contractAddress",
          "type": "address"
        }
      ],
      "name": "getImplementationOwner",
      "outputs": [
        {
          "internalType": "address",
          "name": "",
          "type": "address"
        }
      ],
      "stateMutability": "view",
      "type": "function"
    },
    {
      "inputs": [],
      "name": "implementation",
      "outputs": [
        {
          "internalType": "address",
          "name": "",
          "type": "address"
        }
      ],
      "stateMutability": "view",
      "type": "function"
    },
    {
      "inputs": [
        {
          "internalType": "address",
          "name": "_implementation",
          "type": "address"
        }
      ],
      "name": "upgradeTo",
      "outputs": [],
      "stateMutability": "nonpayable",
      "type": "function"
    },
    {
      "stateMutability": "payable",
      "type": "receive"
    }
  ],
  "bytecode": "0x60806040523480156200001157600080fd5b506200002e67f4de18d00b264c7660c01b6200007d60201b60201c565b6200004a672e9306dc0ee9838d60c01b6200007d60201b60201c565b62000066679eaa87118685b59160c01b6200007d60201b60201c565b62000077336200008060201b60201c565b6200011c565b50565b6200009c67f1af0d92cade1b8660c01b6200007d60201b60201c565b620000b867203b0373eaacfd8c60c01b6200007d60201b60201c565b620000d467668a23e146f795ac60c01b6200007d60201b60201c565b60007f337c729c04082e3bdd94ba7d2b5a8a642f3a138702366a91707825373a2029ba9050620001156787ccbeb87b44f3aa60c01b6200007d60201b60201c565b8181555050565b610f10806200012c6000396000f3fe6080604052600436106100595760003560e01c80631ab0093a146100c25780633659cfe6146100ff5780635c60da1b146101285780638f28397014610153578063d46f7b5e1461017c578063f851a440146101a55761007c565b3661007c5761007267be275d483569c8d660c01b6101d0565b61007a6101d3565b005b61009067cb2f5af0b2e2bcdf60c01b6101d0565b6100a467229ae4249d8467f660c01b6101d0565b6100b8673a4c0e24f5d7d07360c01b6101d0565b6100c06101d3565b005b3480156100ce57600080fd5b506100e960048036038101906100e49190610c41565b610221565b6040516100f69190610c7d565b60405180910390f35b34801561010b57600080fd5b5061012660048036038101906101219190610c41565b610451565b005b34801561013457600080fd5b5061013d6105ae565b60405161014a9190610c7d565b60405180910390f35b34801561015f57600080fd5b5061017a60048036038101906101759190610c41565b6105f9565b005b34801561018857600080fd5b506101a3600480360381019061019e9190610c98565b610756565b005b3480156101b157600080fd5b506101ba61094f565b6040516101c79190610c7d565b60405180910390f35b50565b6101e7670de2196866ca73eb60c01b6101d0565b6101fb672ca251080be0eb7160c01b6101d0565b61020f67ba6a385ddef43f3d60c01b6101d0565b61021f61021a61099a565b610a19565b565b600061023767555842f76f3ec99e60c01b6101d0565b61024b6705f3ffdb46413a0460c01b6101d0565b61025f67860fd42465fc1f6360c01b6101d0565b60006040516024016040516020818303038152906040527f893d20e8000000000000000000000000000000000000000000000000000000007bffffffffffffffffffffffffffffffffffffffffffffffffffffffff19166020820180517bffffffffffffffffffffffffffffffffffffffffffffffffffffffff838183161783525050505090506102fa67938d8f878c5bf17860c01b6101d0565b61030e678b66483e7db7c1c360c01b6101d0565b6000808473ffffffffffffffffffffffffffffffffffffffff16836040516103369190610d49565b600060405180830381855afa9150503d8060008114610371576040519150601f19603f3d011682016040523d82523d6000602084013e610376565b606091505b509150915061038f67c2dd7afa3d1f18a760c01b6101d0565b6103a367d991312e0506c8aa60c01b6101d0565b6103b767faad00cd2ddc759160c01b6101d0565b816103f7576040517f08c379a00000000000000000000000000000000000000000000000000000000081526004016103ee90610dbd565b60405180910390fd5b61040b670b90d86366f622f860c01b6101d0565b61041f67e09d5db1000be4eb60c01b6101d0565b61043367a53f209897106d0360c01b6101d0565b808060200190518101906104479190610e1b565b9350505050919050565b6104656724bd99ffc62bba7160c01b6101d0565b610479670b1c0aec5275284060c01b6101d0565b61048d6790b34246de26a4a360c01b6101d0565b6104a167ce900fcf35603b9d60c01b6101d0565b6104b567fca59094be5761ad60c01b6101d0565b6104bd610a67565b73ffffffffffffffffffffffffffffffffffffffff163373ffffffffffffffffffffffffffffffffffffffff161461052a576040517f08c379a000000000000000000000000000000000000000000000000000000000815260040161052190610eba565b60405180910390fd5b61053e676b3026ce1fa145a060c01b6101d0565b610552676bf9896cc576e52460c01b6101d0565b6105666709529988c339feff60c01b6101d0565b61057a67a2e0734fdd2fef4260c01b6101d0565b61058e6759521ad5b07430f560c01b6101d0565b6105a267df904980f13c294560c01b6101d0565b6105ab81610ae6565b50565b60006105c467e39d6295d1992f5660c01b6101d0565b6105d867816b5af9f91b301a60c01b6101d0565b6105ec671986d7c03d2c1f7460c01b6101d0565b6105f461099a565b905090565b61060d67a38022eb49d4bb5e60c01b6101d0565b610621670b1c0aec5275284060c01b6101d0565b6106356790b34246de26a4a360c01b6101d0565b61064967ce900fcf35603b9d60c01b6101d0565b61065d67fca59094be5761ad60c01b6101d0565b610665610a67565b73ffffffffffffffffffffffffffffffffffffffff163373ffffffffffffffffffffffffffffffffffffffff16146106d2576040517f08c379a00000000000000000000000000000000000000000000000000000000081526004016106c990610eba565b60405180910390fd5b6106e6676b3026ce1fa145a060c01b6101d0565b6106fa676bf9896cc576e52460c01b6101d0565b61070e67b982094bedb05e1d60c01b6101d0565b61072267ff7bfb7c388770d960c01b6101d0565b610736671466e3dbd871383060c01b6101d0565b61074a670977278a81ecf1dc60c01b6101d0565b61075381610b62565b50565b61076a679e9c0d5fdc75586560c01b6101d0565b61077e6709050106164d125360c01b6101d0565b61079267313807dfd103ef1260c01b6101d0565b6000816040516024016107a59190610c7d565b6040516020818303038152906040527fc4d66de8000000000000000000000000000000000000000000000000000000007bffffffffffffffffffffffffffffffffffffffffffffffffffffffff19166020820180517bffffffffffffffffffffffffffffffffffffffffffffffffffffffff83818316178352505050509050610838678e14efcc5267eb7760c01b6101d0565b61084c6744faeb979de2ff5260c01b6101d0565b60008373ffffffffffffffffffffffffffffffffffffffff16826040516108739190610d49565b6000604051808303816000865af19150503d80600081146108b0576040519150601f19603f3d011682016040523d82523d6000602084013e6108b5565b606091505b505090506108cd673658768f67a54b2960c01b6101d0565b6108e16712184f3c07403a9860c01b6101d0565b6108f567af10806675a94c2960c01b6101d0565b80610935576040517f08c379a000000000000000000000000000000000000000000000000000000000815260040161092c90610dbd565b60405180910390fd5b61094967ab97345e89c4144f60c01b6101d0565b50505050565b6000610965672864f6ceaf89c63d60c01b6101d0565b6109796782af04d13e4c6ace60c01b6101d0565b61098d672d6e6654ce46cf0a60c01b6101d0565b610995610a67565b905090565b60006109b06799f22cea1e8337e160c01b6101d0565b6109c467f68f763f3d9196f060c01b6101d0565b6109d8675990a843bdcd799f60c01b6101d0565b60007f7050c9e0f4ca769c69bd3a8ef740bc37934f8e2c036e5a723fd8ee048ed3f8c39050610a1167e9a16a41c7dfcd4f60c01b6101d0565b805491505090565b610a2d6764f71f94fd1d7df460c01b6101d0565b610a41675ce5d879cb821cb160c01b6101d0565b3660008037600080366000845af43d6000803e8060008114610a62573d6000f35b3d6000fd5b6000610a7d676e62c4ba7d58669260c01b6101d0565b610a916701ccc0fe1730089460c01b6101d0565b610aa567e56ac9f18a954e3560c01b6101d0565b60007f337c729c04082e3bdd94ba7d2b5a8a642f3a138702366a91707825373a2029ba9050610ade673fdad4d938bd2fcb60c01b6101d0565b805491505090565b610afa670213ccf1a9ef652160c01b6101d0565b610b0e67b34628bd9c8c946560c01b6101d0565b610b2267da6245d1918a818360c01b6101d0565b60007f7050c9e0f4ca769c69bd3a8ef740bc37934f8e2c036e5a723fd8ee048ed3f8c39050610b5b67a0b33d631641454860c01b6101d0565b8181555050565b610b7667f1af0d92cade1b8660c01b6101d0565b610b8a67203b0373eaacfd8c60c01b6101d0565b610b9e67668a23e146f795ac60c01b6101d0565b60007f337c729c04082e3bdd94ba7d2b5a8a642f3a138702366a91707825373a2029ba9050610bd76787ccbeb87b44f3aa60c01b6101d0565b8181555050565b600080fd5b600073ffffffffffffffffffffffffffffffffffffffff82169050919050565b6000610c0e82610be3565b9050919050565b610c1e81610c03565b8114610c2957600080fd5b50565b600081359050610c3b81610c15565b92915050565b600060208284031215610c5757610c56610bde565b5b6000610c6584828501610c2c565b91505092915050565b610c7781610c03565b82525050565b6000602082019050610c926000830184610c6e565b92915050565b60008060408385031215610caf57610cae610bde565b5b6000610cbd85828601610c2c565b9250506020610cce85828601610c2c565b9150509250929050565b600081519050919050565b600081905092915050565b60005b83811015610d0c578082015181840152602081019050610cf1565b60008484015250505050565b6000610d2382610cd8565b610d2d8185610ce3565b9350610d3d818560208601610cee565b80840191505092915050565b6000610d558284610d18565b915081905092915050565b600082825260208201905092915050565b7f43616c6c206661696c6564000000000000000000000000000000000000000000600082015250565b6000610da7600b83610d60565b9150610db282610d71565b602082019050919050565b60006020820190508181036000830152610dd681610d9a565b9050919050565b6000610de882610be3565b9050919050565b610df881610ddd565b8114610e0357600080fd5b50565b600081519050610e1581610def565b92915050565b600060208284031215610e3157610e30610bde565b5b6000610e3f84828501610e06565b91505092915050565b7f4f6e6c792061646d696e2063616e2063616c6c20746869732066756e6374696f60008201527f6e00000000000000000000000000000000000000000000000000000000000000602082015250565b6000610ea4602183610d60565b9150610eaf82610e48565b604082019050919050565b60006020820190508181036000830152610ed381610e97565b905091905056fea26469706673582212209af858720e1ea6271687f346143fc243c15ca44a8ce621f9ea2a1811ac0032a964736f6c63430008120033",
  "linkReferences": {},
  "deployedLinkReferences": {}
}