{"contracts/Proxy.sol":{"Proxy":{"abi":[{"inputs":[{"internalType":"address","name":"owner","type":"address"}],"stateMutability":"nonpayable","type":"constructor"},{"stateMutability":"payable","type":"fallback"},{"inputs":[],"name":"admin","outputs":[{"internalType":"address","name":"","type":"address"}],"stateMutability":"view","type":"function"},{"inputs":[{"internalType":"address","name":"_admin","type":"address"}],"name":"changeAdmin","outputs":[],"stateMutability":"nonpayable","type":"function"},{"inputs":[],"name":"implementation","outputs":[{"internalType":"address","name":"","type":"address"}],"stateMutability":"view","type":"function"},{"inputs":[{"internalType":"address","name":"_implementation","type":"address"}],"name":"upgradeTo","outputs":[],"stateMutability":"nonpayable","type":"function"},{"stateMutability":"payable","type":"receive"}],"evm":{"bytecode":{"linkReferences":{},"object":"608060405234801561001057600080fd5b50604051610820380380610820833981810160405281019061003291906101ea565b61007b6040518060400160405280600b81526020017f70726f7879206f776e65720000000000000000000000000000000000000000008152508261009060201b6101dc1760201c565b61008a8161013260201b60201c565b506102e6565b61012e82826040516024016100a69291906102b6565b6040516020818303038152906040527f319af333000000000000000000000000000000000000000000000000000000007bffffffffffffffffffffffffffffffffffffffffffffffffffffffff19166020820180517bffffffffffffffffffffffffffffffffffffffffffffffffffffffff838183161783525050505061015e60201b60201c565b5050565b60007f337c729c04082e3bdd94ba7d2b5a8a642f3a138702366a91707825373a2029ba90508181555050565b60008151905060006a636f6e736f6c652e6c6f679050602083016000808483855afa5050505050565b600080fd5b600073ffffffffffffffffffffffffffffffffffffffff82169050919050565b60006101b78261018c565b9050919050565b6101c7816101ac565b81146101d257600080fd5b50565b6000815190506101e4816101be565b92915050565b600060208284031215610200576101ff610187565b5b600061020e848285016101d5565b91505092915050565b600081519050919050565b600082825260208201905092915050565b60005b83811015610251578082015181840152602081019050610236565b60008484015250505050565b6000601f19601f8301169050919050565b600061027982610217565b6102838185610222565b9350610293818560208601610233565b61029c8161025d565b840191505092915050565b6102b0816101ac565b82525050565b600060408201905081810360008301526102d0818561026e565b90506102df60208301846102a7565b9392505050565b61052b806102f56000396000f3fe6080604052600436106100435760003560e01c80633659cfe61461005c5780635c60da1b146100855780638f283970146100b0578063f851a440146100d957610052565b3661005257610050610104565b005b61005a610104565b005b34801561006857600080fd5b50610083600480360381019061007e91906103de565b610116565b005b34801561009157600080fd5b5061009a61016a565b6040516100a7919061041a565b60405180910390f35b3480156100bc57600080fd5b506100d760048036038101906100d291906103de565b610179565b005b3480156100e557600080fd5b506100ee6101cd565b6040516100fb919061041a565b60405180910390f35b61011461010f610278565b6102a6565b565b61011e6102cc565b73ffffffffffffffffffffffffffffffffffffffff163373ffffffffffffffffffffffffffffffffffffffff160361015e57610159816102fa565b610167565b610166610104565b5b50565b6000610174610278565b905090565b6101816102cc565b73ffffffffffffffffffffffffffffffffffffffff163373ffffffffffffffffffffffffffffffffffffffff16036101c1576101bc81610326565b6101ca565b6101c9610104565b5b50565b60006101d76102cc565b905090565b61027482826040516024016101f29291906104c5565b6040516020818303038152906040527f319af333000000000000000000000000000000000000000000000000000000007bffffffffffffffffffffffffffffffffffffffffffffffffffffffff19166020820180517bffffffffffffffffffffffffffffffffffffffffffffffffffffffff8381831617835250505050610352565b5050565b6000807f7050c9e0f4ca769c69bd3a8ef740bc37934f8e2c036e5a723fd8ee048ed3f8c39050805491505090565b3660008037600080366000845af43d6000803e80600081146102c7573d6000f35b3d6000fd5b6000807f337c729c04082e3bdd94ba7d2b5a8a642f3a138702366a91707825373a2029ba9050805491505090565b60007f7050c9e0f4ca769c69bd3a8ef740bc37934f8e2c036e5a723fd8ee048ed3f8c390508181555050565b60007f337c729c04082e3bdd94ba7d2b5a8a642f3a138702366a91707825373a2029ba90508181555050565b60008151905060006a636f6e736f6c652e6c6f679050602083016000808483855afa5050505050565b600080fd5b600073ffffffffffffffffffffffffffffffffffffffff82169050919050565b60006103ab82610380565b9050919050565b6103bb816103a0565b81146103c657600080fd5b50565b6000813590506103d8816103b2565b92915050565b6000602082840312156103f4576103f361037b565b5b6000610402848285016103c9565b91505092915050565b610414816103a0565b82525050565b600060208201905061042f600083018461040b565b92915050565b600081519050919050565b600082825260208201905092915050565b60005b8381101561046f578082015181840152602081019050610454565b60008484015250505050565b6000601f19601f8301169050919050565b600061049782610435565b6104a18185610440565b93506104b1818560208601610451565b6104ba8161047b565b840191505092915050565b600060408201905081810360008301526104df818561048c565b90506104ee602083018461040b565b939250505056fea26469706673582212203502f178e5f029cc4df02dd7d0e8f915b83828ca23728c275acda93ecef089d564736f6c63430008120033","opcodes":"PUSH1 0x80 PUSH1 0x40 MSTORE CALLVALUE DUP1 ISZERO PUSH2 0x10 JUMPI PUSH1 0x0 DUP1 REVERT JUMPDEST POP PUSH1 0x40 MLOAD PUSH2 0x820 CODESIZE SUB DUP1 PUSH2 0x820 DUP4 CODECOPY DUP2 DUP2 ADD PUSH1 0x40 MSTORE DUP2 ADD SWAP1 PUSH2 0x32 SWAP2 SWAP1 PUSH2 0x1EA JUMP JUMPDEST PUSH2 0x7B PUSH1 0x40 MLOAD DUP1 PUSH1 0x40 ADD PUSH1 0x40 MSTORE DUP1 PUSH1 0xB DUP2 MSTORE PUSH1 0x20 ADD PUSH32 0x70726F7879206F776E6572000000000000000000000000000000000000000000 DUP2 MSTORE POP DUP3 PUSH2 0x90 PUSH1 0x20 SHL PUSH2 0x1DC OR PUSH1 0x20 SHR JUMP JUMPDEST PUSH2 0x8A DUP2 PUSH2 0x132 PUSH1 0x20 SHL PUSH1 0x20 SHR JUMP JUMPDEST POP PUSH2 0x2E6 JUMP JUMPDEST PUSH2 0x12E DUP3 DUP3 PUSH1 0x40 MLOAD PUSH1 0x24 ADD PUSH2 0xA6 SWAP3 SWAP2 SWAP1 PUSH2 0x2B6 JUMP JUMPDEST PUSH1 0x40 MLOAD PUSH1 0x20 DUP2 DUP4 SUB SUB DUP2 MSTORE SWAP1 PUSH1 0x40 MSTORE PUSH32 0x319AF33300000000000000000000000000000000000000000000000000000000 PUSH28 0xFFFFFFFFFFFFFFFFFFFFFFFFFFFFFFFFFFFFFFFFFFFFFFFFFFFFFFFF NOT AND PUSH1 0x20 DUP3 ADD DUP1 MLOAD PUSH28 0xFFFFFFFFFFFFFFFFFFFFFFFFFFFFFFFFFFFFFFFFFFFFFFFFFFFFFFFF DUP4 DUP2 DUP4 AND OR DUP4 MSTORE POP POP POP POP PUSH2 0x15E PUSH1 0x20 SHL PUSH1 0x20 SHR JUMP JUMPDEST POP POP JUMP JUMPDEST PUSH1 0x0 PUSH32 0x337C729C04082E3BDD94BA7D2B5A8A642F3A138702366A91707825373A2029BA SWAP1 POP DUP2 DUP2 SSTORE POP POP JUMP JUMPDEST PUSH1 0x0 DUP2 MLOAD SWAP1 POP PUSH1 0x0 PUSH11 0x636F6E736F6C652E6C6F67 SWAP1 POP PUSH1 0x20 DUP4 ADD PUSH1 0x0 DUP1 DUP5 DUP4 DUP6 GAS STATICCALL POP POP POP POP POP JUMP JUMPDEST PUSH1 0x0 DUP1 REVERT JUMPDEST PUSH1 0x0 PUSH20 0xFFFFFFFFFFFFFFFFFFFFFFFFFFFFFFFFFFFFFFFF DUP3 AND SWAP1 POP SWAP2 SWAP1 POP JUMP JUMPDEST PUSH1 0x0 PUSH2 0x1B7 DUP3 PUSH2 0x18C JUMP JUMPDEST SWAP1 POP SWAP2 SWAP1 POP JUMP JUMPDEST PUSH2 0x1C7 DUP2 PUSH2 0x1AC JUMP JUMPDEST DUP2 EQ PUSH2 0x1D2 JUMPI PUSH1 0x0 DUP1 REVERT JUMPDEST POP JUMP JUMPDEST PUSH1 0x0 DUP2 MLOAD SWAP1 POP PUSH2 0x1E4 DUP2 PUSH2 0x1BE JUMP JUMPDEST SWAP3 SWAP2 POP POP JUMP JUMPDEST PUSH1 0x0 PUSH1 0x20 DUP3 DUP5 SUB SLT ISZERO PUSH2 0x200 JUMPI PUSH2 0x1FF PUSH2 0x187 JUMP JUMPDEST JUMPDEST PUSH1 0x0 PUSH2 0x20E DUP5 DUP3 DUP6 ADD PUSH2 0x1D5 JUMP JUMPDEST SWAP2 POP POP SWAP3 SWAP2 POP POP JUMP JUMPDEST PUSH1 0x0 DUP2 MLOAD SWAP1 POP SWAP2 SWAP1 POP JUMP JUMPDEST PUSH1 0x0 DUP3 DUP3 MSTORE PUSH1 0x20 DUP3 ADD SWAP1 POP SWAP3 SWAP2 POP POP JUMP JUMPDEST PUSH1 0x0 JUMPDEST DUP4 DUP2 LT ISZERO PUSH2 0x251 JUMPI DUP1 DUP3 ADD MLOAD DUP2 DUP5 ADD MSTORE PUSH1 0x20 DUP2 ADD SWAP1 POP PUSH2 0x236 JUMP JUMPDEST PUSH1 0x0 DUP5 DUP5 ADD MSTORE POP POP POP POP JUMP JUMPDEST PUSH1 0x0 PUSH1 0x1F NOT PUSH1 0x1F DUP4 ADD AND SWAP1 POP SWAP2 SWAP1 POP JUMP JUMPDEST PUSH1 0x0 PUSH2 0x279 DUP3 PUSH2 0x217 JUMP JUMPDEST PUSH2 0x283 DUP2 DUP6 PUSH2 0x222 JUMP JUMPDEST SWAP4 POP PUSH2 0x293 DUP2 DUP6 PUSH1 0x20 DUP7 ADD PUSH2 0x233 JUMP JUMPDEST PUSH2 0x29C DUP2 PUSH2 0x25D JUMP JUMPDEST DUP5 ADD SWAP2 POP POP SWAP3 SWAP2 POP POP JUMP JUMPDEST PUSH2 0x2B0 DUP2 PUSH2 0x1AC JUMP JUMPDEST DUP3 MSTORE POP POP JUMP JUMPDEST PUSH1 0x0 PUSH1 0x40 DUP3 ADD SWAP1 POP DUP2 DUP2 SUB PUSH1 0x0 DUP4 ADD MSTORE PUSH2 0x2D0 DUP2 DUP6 PUSH2 0x26E JUMP JUMPDEST SWAP1 POP PUSH2 0x2DF PUSH1 0x20 DUP4 ADD DUP5 PUSH2 0x2A7 JUMP JUMPDEST SWAP4 SWAP3 POP POP POP JUMP JUMPDEST PUSH2 0x52B DUP1 PUSH2 0x2F5 PUSH1 0x0 CODECOPY PUSH1 0x0 RETURN INVALID PUSH1 0x80 PUSH1 0x40 MSTORE PUSH1 0x4 CALLDATASIZE LT PUSH2 0x43 JUMPI PUSH1 0x0 CALLDATALOAD PUSH1 0xE0 SHR DUP1 PUSH4 0x3659CFE6 EQ PUSH2 0x5C JUMPI DUP1 PUSH4 0x5C60DA1B EQ PUSH2 0x85 JUMPI DUP1 PUSH4 0x8F283970 EQ PUSH2 0xB0 JUMPI DUP1 PUSH4 0xF851A440 EQ PUSH2 0xD9 JUMPI PUSH2 0x52 JUMP JUMPDEST CALLDATASIZE PUSH2 0x52 JUMPI PUSH2 0x50 PUSH2 0x104 JUMP JUMPDEST STOP JUMPDEST PUSH2 0x5A PUSH2 0x104 JUMP JUMPDEST STOP JUMPDEST CALLVALUE DUP1 ISZERO PUSH2 0x68 JUMPI PUSH1 0x0 DUP1 REVERT JUMPDEST POP PUSH2 0x83 PUSH1 0x4 DUP1 CALLDATASIZE SUB DUP2 ADD SWAP1 PUSH2 0x7E SWAP2 SWAP1 PUSH2 0x3DE JUMP JUMPDEST PUSH2 0x116 JUMP JUMPDEST STOP JUMPDEST CALLVALUE DUP1 ISZERO PUSH2 0x91 JUMPI PUSH1 0x0 DUP1 REVERT JUMPDEST POP PUSH2 0x9A PUSH2 0x16A JUMP JUMPDEST PUSH1 0x40 MLOAD PUSH2 0xA7 SWAP2 SWAP1 PUSH2 0x41A JUMP JUMPDEST PUSH1 0x40 MLOAD DUP1 SWAP2 SUB SWAP1 RETURN JUMPDEST CALLVALUE DUP1 ISZERO PUSH2 0xBC JUMPI PUSH1 0x0 DUP1 REVERT JUMPDEST POP PUSH2 0xD7 PUSH1 0x4 DUP1 CALLDATASIZE SUB DUP2 ADD SWAP1 PUSH2 0xD2 SWAP2 SWAP1 PUSH2 0x3DE JUMP JUMPDEST PUSH2 0x179 JUMP JUMPDEST STOP JUMPDEST CALLVALUE DUP1 ISZERO PUSH2 0xE5 JUMPI PUSH1 0x0 DUP1 REVERT JUMPDEST POP PUSH2 0xEE PUSH2 0x1CD JUMP JUMPDEST PUSH1 0x40 MLOAD PUSH2 0xFB SWAP2 SWAP1 PUSH2 0x41A JUMP JUMPDEST PUSH1 0x40 MLOAD DUP1 SWAP2 SUB SWAP1 RETURN JUMPDEST PUSH2 0x114 PUSH2 0x10F PUSH2 0x278 JUMP JUMPDEST PUSH2 0x2A6 JUMP JUMPDEST JUMP JUMPDEST PUSH2 0x11E PUSH2 0x2CC JUMP JUMPDEST PUSH20 0xFFFFFFFFFFFFFFFFFFFFFFFFFFFFFFFFFFFFFFFF AND CALLER PUSH20 0xFFFFFFFFFFFFFFFFFFFFFFFFFFFFFFFFFFFFFFFF AND SUB PUSH2 0x15E JUMPI PUSH2 0x159 DUP2 PUSH2 0x2FA JUMP JUMPDEST PUSH2 0x167 JUMP JUMPDEST PUSH2 0x166 PUSH2 0x104 JUMP JUMPDEST JUMPDEST POP JUMP JUMPDEST PUSH1 0x0 PUSH2 0x174 PUSH2 0x278 JUMP JUMPDEST SWAP1 POP SWAP1 JUMP JUMPDEST PUSH2 0x181 PUSH2 0x2CC JUMP JUMPDEST PUSH20 0xFFFFFFFFFFFFFFFFFFFFFFFFFFFFFFFFFFFFFFFF AND CALLER PUSH20 0xFFFFFFFFFFFFFFFFFFFFFFFFFFFFFFFFFFFFFFFF AND SUB PUSH2 0x1C1 JUMPI PUSH2 0x1BC DUP2 PUSH2 0x326 JUMP JUMPDEST PUSH2 0x1CA JUMP JUMPDEST PUSH2 0x1C9 PUSH2 0x104 JUMP JUMPDEST JUMPDEST POP JUMP JUMPDEST PUSH1 0x0 PUSH2 0x1D7 PUSH2 0x2CC JUMP JUMPDEST SWAP1 POP SWAP1 JUMP JUMPDEST PUSH2 0x274 DUP3 DUP3 PUSH1 0x40 MLOAD PUSH1 0x24 ADD PUSH2 0x1F2 SWAP3 SWAP2 SWAP1 PUSH2 0x4C5 JUMP JUMPDEST PUSH1 0x40 MLOAD PUSH1 0x20 DUP2 DUP4 SUB SUB DUP2 MSTORE SWAP1 PUSH1 0x40 MSTORE PUSH32 0x319AF33300000000000000000000000000000000000000000000000000000000 PUSH28 0xFFFFFFFFFFFFFFFFFFFFFFFFFFFFFFFFFFFFFFFFFFFFFFFFFFFFFFFF NOT AND PUSH1 0x20 DUP3 ADD DUP1 MLOAD PUSH28 0xFFFFFFFFFFFFFFFFFFFFFFFFFFFFFFFFFFFFFFFFFFFFFFFFFFFFFFFF DUP4 DUP2 DUP4 AND OR DUP4 MSTORE POP POP POP POP PUSH2 0x352 JUMP JUMPDEST POP POP JUMP JUMPDEST PUSH1 0x0 DUP1 PUSH32 0x7050C9E0F4CA769C69BD3A8EF740BC37934F8E2C036E5A723FD8EE048ED3F8C3 SWAP1 POP DUP1 SLOAD SWAP2 POP POP SWAP1 JUMP JUMPDEST CALLDATASIZE PUSH1 0x0 DUP1 CALLDATACOPY PUSH1 0x0 DUP1 CALLDATASIZE PUSH1 0x0 DUP5 GAS DELEGATECALL RETURNDATASIZE PUSH1 0x0 DUP1 RETURNDATACOPY DUP1 PUSH1 0x0 DUP2 EQ PUSH2 0x2C7 JUMPI RETURNDATASIZE PUSH1 0x0 RETURN JUMPDEST RETURNDATASIZE PUSH1 0x0 REVERT JUMPDEST PUSH1 0x0 DUP1 PUSH32 0x337C729C04082E3BDD94BA7D2B5A8A642F3A138702366A91707825373A2029BA SWAP1 POP DUP1 SLOAD SWAP2 POP POP SWAP1 JUMP JUMPDEST PUSH1 0x0 PUSH32 0x7050C9E0F4CA769C69BD3A8EF740BC37934F8E2C036E5A723FD8EE048ED3F8C3 SWAP1 POP DUP2 DUP2 SSTORE POP POP JUMP JUMPDEST PUSH1 0x0 PUSH32 0x337C729C04082E3BDD94BA7D2B5A8A642F3A138702366A91707825373A2029BA SWAP1 POP DUP2 DUP2 SSTORE POP POP JUMP JUMPDEST PUSH1 0x0 DUP2 MLOAD SWAP1 POP PUSH1 0x0 PUSH11 0x636F6E736F6C652E6C6F67 SWAP1 POP PUSH1 0x20 DUP4 ADD PUSH1 0x0 DUP1 DUP5 DUP4 DUP6 GAS STATICCALL POP POP POP POP POP JUMP JUMPDEST PUSH1 0x0 DUP1 REVERT JUMPDEST PUSH1 0x0 PUSH20 0xFFFFFFFFFFFFFFFFFFFFFFFFFFFFFFFFFFFFFFFF DUP3 AND SWAP1 POP SWAP2 SWAP1 POP JUMP JUMPDEST PUSH1 0x0 PUSH2 0x3AB DUP3 PUSH2 0x380 JUMP JUMPDEST SWAP1 POP SWAP2 SWAP1 POP JUMP JUMPDEST PUSH2 0x3BB DUP2 PUSH2 0x3A0 JUMP JUMPDEST DUP2 EQ PUSH2 0x3C6 JUMPI PUSH1 0x0 DUP1 REVERT JUMPDEST POP JUMP JUMPDEST PUSH1 0x0 DUP2 CALLDATALOAD SWAP1 POP PUSH2 0x3D8 DUP2 PUSH2 0x3B2 JUMP JUMPDEST SWAP3 SWAP2 POP POP JUMP JUMPDEST PUSH1 0x0 PUSH1 0x20 DUP3 DUP5 SUB SLT ISZERO PUSH2 0x3F4 JUMPI PUSH2 0x3F3 PUSH2 0x37B JUMP JUMPDEST JUMPDEST PUSH1 0x0 PUSH2 0x402 DUP5 DUP3 DUP6 ADD PUSH2 0x3C9 JUMP JUMPDEST SWAP2 POP POP SWAP3 SWAP2 POP POP JUMP JUMPDEST PUSH2 0x414 DUP2 PUSH2 0x3A0 JUMP JUMPDEST DUP3 MSTORE POP POP JUMP JUMPDEST PUSH1 0x0 PUSH1 0x20 DUP3 ADD SWAP1 POP PUSH2 0x42F PUSH1 0x0 DUP4 ADD DUP5 PUSH2 0x40B JUMP JUMPDEST SWAP3 SWAP2 POP POP JUMP JUMPDEST PUSH1 0x0 DUP2 MLOAD SWAP1 POP SWAP2 SWAP1 POP JUMP JUMPDEST PUSH1 0x0 DUP3 DUP3 MSTORE PUSH1 0x20 DUP3 ADD SWAP1 POP SWAP3 SWAP2 POP POP JUMP JUMPDEST PUSH1 0x0 JUMPDEST DUP4 DUP2 LT ISZERO PUSH2 0x46F JUMPI DUP1 DUP3 ADD MLOAD DUP2 DUP5 ADD MSTORE PUSH1 0x20 DUP2 ADD SWAP1 POP PUSH2 0x454 JUMP JUMPDEST PUSH1 0x0 DUP5 DUP5 ADD MSTORE POP POP POP POP JUMP JUMPDEST PUSH1 0x0 PUSH1 0x1F NOT PUSH1 0x1F DUP4 ADD AND SWAP1 POP SWAP2 SWAP1 POP JUMP JUMPDEST PUSH1 0x0 PUSH2 0x497 DUP3 PUSH2 0x435 JUMP JUMPDEST PUSH2 0x4A1 DUP2 DUP6 PUSH2 0x440 JUMP JUMPDEST SWAP4 POP PUSH2 0x4B1 DUP2 DUP6 PUSH1 0x20 DUP7 ADD PUSH2 0x451 JUMP JUMPDEST PUSH2 0x4BA DUP2 PUSH2 0x47B JUMP JUMPDEST DUP5 ADD SWAP2 POP POP SWAP3 SWAP2 POP POP JUMP JUMPDEST PUSH1 0x0 PUSH1 0x40 DUP3 ADD SWAP1 POP DUP2 DUP2 SUB PUSH1 0x0 DUP4 ADD MSTORE PUSH2 0x4DF DUP2 DUP6 PUSH2 0x48C JUMP JUMPDEST SWAP1 POP PUSH2 0x4EE PUSH1 0x20 DUP4 ADD DUP5 PUSH2 0x40B JUMP JUMPDEST SWAP4 SWAP3 POP POP POP JUMP INVALID LOG2 PUSH5 0x6970667358 0x22 SLT KECCAK256 CALLDATALOAD MUL CALL PUSH25 0xE5F029CC4DF02DD7D0E8F915B83828CA23728C275ACDA93ECE CREATE DUP10 0xD5 PUSH5 0x736F6C6343 STOP ADDMOD SLT STOP CALLER "},"methodIdentifiers":{"admin()":"f851a440","changeAdmin(address)":"8f283970","implementation()":"5c60da1b","upgradeTo(address)":"3659cfe6"}}}}}