{
  "_format": "hh-sol-artifact-1",
  "contractName": "SafeUpgradeable",
  "sourceName": "contracts/SafeUpgradeable.sol",
  "abi": [
    {
      "inputs": [
        {
          "internalType": "address",
          "name": "token",
          "type": "address"
        },
        {
          "internalType": "uint256",
          "name": "amount",
          "type": "uint256"
        }
      ],
      "name": "deposit",
      "outputs": [],
      "stateMutability": "nonpayable",
      "type": "function"
    },
    {
      "inputs": [
        {
          "internalType": "address",
          "name": "token",
          "type": "address"
        }
      ],
      "name": "getBalance",
      "outputs": [
        {
          "internalType": "uint256",
          "name": "balance",
          "type": "uint256"
        }
      ],
      "stateMutability": "view",
      "type": "function"
    },
    {
      "inputs": [
        {
          "internalType": "address",
          "name": "token",
          "type": "address"
        }
      ],
      "name": "getFees",
      "outputs": [
        {
          "internalType": "uint256",
          "name": "fee",
          "type": "uint256"
        }
      ],
      "stateMutability": "view",
      "type": "function"
    },
    {
      "inputs": [],
      "name": "getOwner",
      "outputs": [
        {
          "internalType": "address",
          "name": "",
          "type": "address"
        }
      ],
      "stateMutability": "view",
      "type": "function"
    },
    {
      "inputs": [
        {
          "internalType": "address",
          "name": "_owner",
          "type": "address"
        }
      ],
      "name": "initialize",
      "outputs": [],
      "stateMutability": "nonpayable",
      "type": "function"
    },
    {
      "inputs": [],
      "name": "owner",
      "outputs": [
        {
          "internalType": "address",
          "name": "",
          "type": "address"
        }
      ],
      "stateMutability": "view",
      "type": "function"
    },
    {
      "inputs": [
        {
          "internalType": "address",
          "name": "token",
          "type": "address"
        }
      ],
      "name": "takeFee",
      "outputs": [],
      "stateMutability": "nonpayable",
      "type": "function"
    },
    {
      "inputs": [
        {
          "internalType": "address",
          "name": "token",
          "type": "address"
        },
        {
          "internalType": "uint256",
          "name": "amount",
          "type": "uint256"
        }
      ],
      "name": "withdraw",
      "outputs": [],
      "stateMutability": "nonpayable",
      "type": "function"
    }
  ],
  "bytecode": "0x608060405234801561001057600080fd5b506112c6806100206000396000f3fe608060405234801561001057600080fd5b50600436106100885760003560e01c8063a5bf8ec61161005b578063a5bf8ec614610115578063c4d66de814610131578063f3fef3a31461014d578063f8b2cb4f1461016957610088565b806347e7ef241461008d578063893d20e8146100a95780638da5cb5b146100c75780639af608c9146100e5575b600080fd5b6100a760048036038101906100a29190610c60565b610199565b005b6100b1610477565b6040516100be9190610caf565b60405180910390f35b6100cf6104a0565b6040516100dc9190610caf565b60405180910390f35b6100ff60048036038101906100fa9190610cca565b6104c4565b60405161010c9190610d06565b60405180910390f35b61012f600480360381019061012a9190610cca565b610563565b005b61014b60048036038101906101469190610cca565b610791565b005b61016760048036038101906101629190610c60565b61083f565b005b610183600480360381019061017e9190610cca565b610aeb565b6040516101909190610d06565b60405180910390f35b60011515600360009054906101000a900460ff161515146101ef576040517f08c379a00000000000000000000000000000000000000000000000000000000081526004016101e690610d7e565b60405180910390fd5b60008111610232576040517f08c379a000000000000000000000000000000000000000000000000000000000815260040161022990610dea565b60405180910390fd5b600073ffffffffffffffffffffffffffffffffffffffff168273ffffffffffffffffffffffffffffffffffffffff16036102a1576040517f08c379a000000000000000000000000000000000000000000000000000000000815260040161029890610e56565b60405180910390fd5b60006103e86001836102b39190610ea5565b6102bd9190610f16565b905080826102cb9190610f47565b600160003373ffffffffffffffffffffffffffffffffffffffff1673ffffffffffffffffffffffffffffffffffffffff16815260200190815260200160002060008573ffffffffffffffffffffffffffffffffffffffff1673ffffffffffffffffffffffffffffffffffffffff16815260200190815260200160002060008282546103569190610f7b565b9250508190555080600260008573ffffffffffffffffffffffffffffffffffffffff1673ffffffffffffffffffffffffffffffffffffffff16815260200190815260200160002060008282546103ac9190610f7b565b925050819055508273ffffffffffffffffffffffffffffffffffffffff166323b872dd3330856040518463ffffffff1660e01b81526004016103f093929190610faf565b6020604051808303816000875af115801561040f573d6000803e3d6000fd5b505050506040513d601f19601f82011682018060405250810190610433919061101e565b610472576040517f08c379a000000000000000000000000000000000000000000000000000000000815260040161046990611097565b60405180910390fd5b505050565b60008060009054906101000a900473ffffffffffffffffffffffffffffffffffffffff16905090565b60008054906101000a900473ffffffffffffffffffffffffffffffffffffffff1681565b600060011515600360009054906101000a900460ff1615151461051c576040517f08c379a000000000000000000000000000000000000000000000000000000000815260040161051390610d7e565b60405180910390fd5b600260008373ffffffffffffffffffffffffffffffffffffffff1673ffffffffffffffffffffffffffffffffffffffff168152602001908152602001600020549050919050565b60011515600360009054906101000a900460ff161515146105b9576040517f08c379a00000000000000000000000000000000000000000000000000000000081526004016105b090610d7e565b60405180910390fd5b60008054906101000a900473ffffffffffffffffffffffffffffffffffffffff1673ffffffffffffffffffffffffffffffffffffffff163373ffffffffffffffffffffffffffffffffffffffff1614610647576040517f08c379a000000000000000000000000000000000000000000000000000000000815260040161063e90611103565b60405180910390fd5b6000600260008373ffffffffffffffffffffffffffffffffffffffff1673ffffffffffffffffffffffffffffffffffffffff1681526020019081526020016000205490506000600260008473ffffffffffffffffffffffffffffffffffffffff1673ffffffffffffffffffffffffffffffffffffffff168152602001908152602001600020819055508173ffffffffffffffffffffffffffffffffffffffff1663a9059cbb33836040518363ffffffff1660e01b815260040161070b929190611123565b6020604051808303816000875af115801561072a573d6000803e3d6000fd5b505050506040513d601f19601f8201168201806040525081019061074e919061101e565b61078d576040517f08c379a000000000000000000000000000000000000000000000000000000000815260040161078490611198565b60405180910390fd5b5050565b600360009054906101000a900460ff16156107e1576040517f08c379a00000000000000000000000000000000000000000000000000000000081526004016107d890611204565b60405180910390fd5b806000806101000a81548173ffffffffffffffffffffffffffffffffffffffff021916908373ffffffffffffffffffffffffffffffffffffffff1602179055506001600360006101000a81548160ff02191690831515021790555050565b60011515600360009054906101000a900460ff16151514610895576040517f08c379a000000000000000000000000000000000000000000000000000000000815260040161088c90610d7e565b60405180910390fd5b600081116108d8576040517f08c379a00000000000000000000000000000000000000000000000000000000081526004016108cf90610dea565b60405180910390fd5b80600160003373ffffffffffffffffffffffffffffffffffffffff1673ffffffffffffffffffffffffffffffffffffffff16815260200190815260200160002060008473ffffffffffffffffffffffffffffffffffffffff1673ffffffffffffffffffffffffffffffffffffffff168152602001908152602001600020541015610997576040517f08c379a000000000000000000000000000000000000000000000000000000000815260040161098e90611270565b60405180910390fd5b80600160003373ffffffffffffffffffffffffffffffffffffffff1673ffffffffffffffffffffffffffffffffffffffff16815260200190815260200160002060008473ffffffffffffffffffffffffffffffffffffffff1673ffffffffffffffffffffffffffffffffffffffff1681526020019081526020016000206000828254610a239190610f47565b925050819055508173ffffffffffffffffffffffffffffffffffffffff1663a9059cbb33836040518363ffffffff1660e01b8152600401610a65929190611123565b6020604051808303816000875af1158015610a84573d6000803e3d6000fd5b505050506040513d601f19601f82011682018060405250810190610aa8919061101e565b610ae7576040517f08c379a0000000000000000000000000000000000000000000000000000000008152600401610ade90611097565b60405180910390fd5b5050565b600060011515600360009054906101000a900460ff16151514610b43576040517f08c379a0000000000000000000000000000000000000000000000000000000008152600401610b3a90610d7e565b60405180910390fd5b600160003373ffffffffffffffffffffffffffffffffffffffff1673ffffffffffffffffffffffffffffffffffffffff16815260200190815260200160002060008373ffffffffffffffffffffffffffffffffffffffff1673ffffffffffffffffffffffffffffffffffffffff168152602001908152602001600020549050919050565b600080fd5b600073ffffffffffffffffffffffffffffffffffffffff82169050919050565b6000610bf782610bcc565b9050919050565b610c0781610bec565b8114610c1257600080fd5b50565b600081359050610c2481610bfe565b92915050565b6000819050919050565b610c3d81610c2a565b8114610c4857600080fd5b50565b600081359050610c5a81610c34565b92915050565b60008060408385031215610c7757610c76610bc7565b5b6000610c8585828601610c15565b9250506020610c9685828601610c4b565b9150509250929050565b610ca981610bec565b82525050565b6000602082019050610cc46000830184610ca0565b92915050565b600060208284031215610ce057610cdf610bc7565b5b6000610cee84828501610c15565b91505092915050565b610d0081610c2a565b82525050565b6000602082019050610d1b6000830184610cf7565b92915050565b600082825260208201905092915050565b7f4e6f7420496e6974207965742121210000000000000000000000000000000000600082015250565b6000610d68600f83610d21565b9150610d7382610d32565b602082019050919050565b60006020820190508181036000830152610d9781610d5b565b9050919050565b7f416d6f756e74206d7573742062652067726561746572207468616e2030000000600082015250565b6000610dd4601d83610d21565b9150610ddf82610d9e565b602082019050919050565b60006020820190508181036000830152610e0381610dc7565b9050919050565b7f43616e27742073656e6420746f20307830302e2e206164647265737300000000600082015250565b6000610e40601c83610d21565b9150610e4b82610e0a565b602082019050919050565b60006020820190508181036000830152610e6f81610e33565b9050919050565b7f4e487b7100000000000000000000000000000000000000000000000000000000600052601160045260246000fd5b6000610eb082610c2a565b9150610ebb83610c2a565b9250828202610ec981610c2a565b91508282048414831517610ee057610edf610e76565b5b5092915050565b7f4e487b7100000000000000000000000000000000000000000000000000000000600052601260045260246000fd5b6000610f2182610c2a565b9150610f2c83610c2a565b925082610f3c57610f3b610ee7565b5b828204905092915050565b6000610f5282610c2a565b9150610f5d83610c2a565b9250828203905081811115610f7557610f74610e76565b5b92915050565b6000610f8682610c2a565b9150610f9183610c2a565b9250828201905080821115610fa957610fa8610e76565b5b92915050565b6000606082019050610fc46000830186610ca0565b610fd16020830185610ca0565b610fde6040830184610cf7565b949350505050565b60008115159050919050565b610ffb81610fe6565b811461100657600080fd5b50565b60008151905061101881610ff2565b92915050565b60006020828403121561103457611033610bc7565b5b600061104284828501611009565b91505092915050565b7f546f6b656e207472616e73666572206661696c65640000000000000000000000600082015250565b6000611081601583610d21565b915061108c8261104b565b602082019050919050565b600060208201905081810360008301526110b081611074565b9050919050565b7f4f6e6c79206f776e65722063616e2074616b6520666565730000000000000000600082015250565b60006110ed601883610d21565b91506110f8826110b7565b602082019050919050565b6000602082019050818103600083015261111c816110e0565b9050919050565b60006040820190506111386000830185610ca0565b6111456020830184610cf7565b9392505050565b7f46656573207472616e73666572206661696c6564000000000000000000000000600082015250565b6000611182601483610d21565b915061118d8261114c565b602082019050919050565b600060208201905081810360008301526111b181611175565b9050919050565b7f616c726561647920696e697469616c697a656400000000000000000000000000600082015250565b60006111ee601383610d21565b91506111f9826111b8565b602082019050919050565b6000602082019050818103600083015261121d816111e1565b9050919050565b7f4e6f7420656e6f75676820616d6f756e7420746f207769746864726177000000600082015250565b600061125a601d83610d21565b915061126582611224565b602082019050919050565b600060208201905081810360008301526112898161124d565b905091905056fea26469706673582212201a86b546163ed5d2ccd7e05a8b0c063c68e888d495af7d88627049a9e8aca19064736f6c63430008120033",
  "linkReferences": {},
  "deployedLinkReferences": {}
}