{
  "_format": "hh-sol-artifact-1",
  "contractName": "Safe",
  "sourceName": "contracts/Safe.sol",
  "abi": [
    {
      "anonymous": false,
      "inputs": [
        {
          "indexed": false,
          "internalType": "uint8",
          "name": "version",
          "type": "uint8"
        }
      ],
      "name": "Initialized",
      "type": "event"
    },
    {
      "inputs": [
        {
          "internalType": "address",
          "name": "token",
          "type": "address"
        },
        {
          "internalType": "uint256",
          "name": "amount",
          "type": "uint256"
        }
      ],
      "name": "deposit",
      "outputs": [],
      "stateMutability": "nonpayable",
      "type": "function"
    },
    {
      "inputs": [
        {
          "internalType": "address",
          "name": "token",
          "type": "address"
        }
      ],
      "name": "getBalance",
      "outputs": [
        {
          "internalType": "uint256",
          "name": "balance",
          "type": "uint256"
        }
      ],
      "stateMutability": "view",
      "type": "function"
    },
    {
      "inputs": [
        {
          "internalType": "address",
          "name": "token",
          "type": "address"
        }
      ],
      "name": "getFees",
      "outputs": [
        {
          "internalType": "uint256",
          "name": "fee",
          "type": "uint256"
        }
      ],
      "stateMutability": "view",
      "type": "function"
    },
    {
      "inputs": [],
      "name": "getOwner",
      "outputs": [
        {
          "internalType": "address",
          "name": "",
          "type": "address"
        }
      ],
      "stateMutability": "view",
      "type": "function"
    },
    {
      "inputs": [
        {
          "internalType": "address",
          "name": "_owner",
          "type": "address"
        }
      ],
      "name": "initialize",
      "outputs": [],
      "stateMutability": "nonpayable",
      "type": "function"
    },
    {
      "inputs": [],
      "name": "owner",
      "outputs": [
        {
          "internalType": "address",
          "name": "",
          "type": "address"
        }
      ],
      "stateMutability": "view",
      "type": "function"
    },
    {
      "inputs": [
        {
          "internalType": "address",
          "name": "token",
          "type": "address"
        }
      ],
      "name": "takeFee",
      "outputs": [],
      "stateMutability": "nonpayable",
      "type": "function"
    },
    {
      "inputs": [
        {
          "internalType": "address",
          "name": "token",
          "type": "address"
        },
        {
          "internalType": "uint256",
          "name": "amount",
          "type": "uint256"
        }
      ],
      "name": "withdraw",
      "outputs": [],
      "stateMutability": "nonpayable",
      "type": "function"
    }
  ],
  "bytecode": "0x608060405234801561001057600080fd5b506112cb806100206000396000f3fe608060405234801561001057600080fd5b50600436106100885760003560e01c8063a5bf8ec61161005b578063a5bf8ec614610115578063c4d66de814610131578063f3fef3a31461014d578063f8b2cb4f1461016957610088565b806347e7ef241461008d578063893d20e8146100a95780638da5cb5b146100c75780639af608c9146100e5575b600080fd5b6100a760048036038101906100a29190610c65565b610199565b005b6100b1610477565b6040516100be9190610cb4565b60405180910390f35b6100cf6104a0565b6040516100dc9190610cb4565b60405180910390f35b6100ff60048036038101906100fa9190610ccf565b6104c6565b60405161010c9190610d0b565b60405180910390f35b61012f600480360381019061012a9190610ccf565b610565565b005b61014b60048036038101906101469190610ccf565b610795565b005b61016760048036038101906101629190610c65565b610844565b005b610183600480360381019061017e9190610ccf565b610af0565b6040516101909190610d0b565b60405180910390f35b60011515600360009054906101000a900460ff161515146101ef576040517f08c379a00000000000000000000000000000000000000000000000000000000081526004016101e690610d83565b60405180910390fd5b60008111610232576040517f08c379a000000000000000000000000000000000000000000000000000000000815260040161022990610def565b60405180910390fd5b600073ffffffffffffffffffffffffffffffffffffffff168273ffffffffffffffffffffffffffffffffffffffff16036102a1576040517f08c379a000000000000000000000000000000000000000000000000000000000815260040161029890610e5b565b60405180910390fd5b60006103e86001836102b39190610eaa565b6102bd9190610f1b565b905080826102cb9190610f4c565b600160003373ffffffffffffffffffffffffffffffffffffffff1673ffffffffffffffffffffffffffffffffffffffff16815260200190815260200160002060008573ffffffffffffffffffffffffffffffffffffffff1673ffffffffffffffffffffffffffffffffffffffff16815260200190815260200160002060008282546103569190610f80565b9250508190555080600260008573ffffffffffffffffffffffffffffffffffffffff1673ffffffffffffffffffffffffffffffffffffffff16815260200190815260200160002060008282546103ac9190610f80565b925050819055508273ffffffffffffffffffffffffffffffffffffffff166323b872dd3330856040518463ffffffff1660e01b81526004016103f093929190610fb4565b6020604051808303816000875af115801561040f573d6000803e3d6000fd5b505050506040513d601f19601f820116820180604052508101906104339190611023565b610472576040517f08c379a00000000000000000000000000000000000000000000000000000000081526004016104699061109c565b60405180910390fd5b505050565b60008060029054906101000a900473ffffffffffffffffffffffffffffffffffffffff16905090565b600060029054906101000a900473ffffffffffffffffffffffffffffffffffffffff1681565b600060011515600360009054906101000a900460ff1615151461051e576040517f08c379a000000000000000000000000000000000000000000000000000000000815260040161051590610d83565b60405180910390fd5b600260008373ffffffffffffffffffffffffffffffffffffffff1673ffffffffffffffffffffffffffffffffffffffff168152602001908152602001600020549050919050565b60011515600360009054906101000a900460ff161515146105bb576040517f08c379a00000000000000000000000000000000000000000000000000000000081526004016105b290610d83565b60405180910390fd5b600060029054906101000a900473ffffffffffffffffffffffffffffffffffffffff1673ffffffffffffffffffffffffffffffffffffffff163373ffffffffffffffffffffffffffffffffffffffff161461064b576040517f08c379a000000000000000000000000000000000000000000000000000000000815260040161064290611108565b60405180910390fd5b6000600260008373ffffffffffffffffffffffffffffffffffffffff1673ffffffffffffffffffffffffffffffffffffffff1681526020019081526020016000205490506000600260008473ffffffffffffffffffffffffffffffffffffffff1673ffffffffffffffffffffffffffffffffffffffff168152602001908152602001600020819055508173ffffffffffffffffffffffffffffffffffffffff1663a9059cbb33836040518363ffffffff1660e01b815260040161070f929190611128565b6020604051808303816000875af115801561072e573d6000803e3d6000fd5b505050506040513d601f19601f820116820180604052508101906107529190611023565b610791576040517f08c379a00000000000000000000000000000000000000000000000000000000081526004016107889061119d565b60405180910390fd5b5050565b600360009054906101000a900460ff16156107e5576040517f08c379a00000000000000000000000000000000000000000000000000000000081526004016107dc90611209565b60405180910390fd5b80600060026101000a81548173ffffffffffffffffffffffffffffffffffffffff021916908373ffffffffffffffffffffffffffffffffffffffff1602179055506001600360006101000a81548160ff02191690831515021790555050565b60011515600360009054906101000a900460ff1615151461089a576040517f08c379a000000000000000000000000000000000000000000000000000000000815260040161089190610d83565b60405180910390fd5b600081116108dd576040517f08c379a00000000000000000000000000000000000000000000000000000000081526004016108d490610def565b60405180910390fd5b80600160003373ffffffffffffffffffffffffffffffffffffffff1673ffffffffffffffffffffffffffffffffffffffff16815260200190815260200160002060008473ffffffffffffffffffffffffffffffffffffffff1673ffffffffffffffffffffffffffffffffffffffff16815260200190815260200160002054101561099c576040517f08c379a000000000000000000000000000000000000000000000000000000000815260040161099390611275565b60405180910390fd5b80600160003373ffffffffffffffffffffffffffffffffffffffff1673ffffffffffffffffffffffffffffffffffffffff16815260200190815260200160002060008473ffffffffffffffffffffffffffffffffffffffff1673ffffffffffffffffffffffffffffffffffffffff1681526020019081526020016000206000828254610a289190610f4c565b925050819055508173ffffffffffffffffffffffffffffffffffffffff1663a9059cbb33836040518363ffffffff1660e01b8152600401610a6a929190611128565b6020604051808303816000875af1158015610a89573d6000803e3d6000fd5b505050506040513d601f19601f82011682018060405250810190610aad9190611023565b610aec576040517f08c379a0000000000000000000000000000000000000000000000000000000008152600401610ae39061109c565b60405180910390fd5b5050565b600060011515600360009054906101000a900460ff16151514610b48576040517f08c379a0000000000000000000000000000000000000000000000000000000008152600401610b3f90610d83565b60405180910390fd5b600160003373ffffffffffffffffffffffffffffffffffffffff1673ffffffffffffffffffffffffffffffffffffffff16815260200190815260200160002060008373ffffffffffffffffffffffffffffffffffffffff1673ffffffffffffffffffffffffffffffffffffffff168152602001908152602001600020549050919050565b600080fd5b600073ffffffffffffffffffffffffffffffffffffffff82169050919050565b6000610bfc82610bd1565b9050919050565b610c0c81610bf1565b8114610c1757600080fd5b50565b600081359050610c2981610c03565b92915050565b6000819050919050565b610c4281610c2f565b8114610c4d57600080fd5b50565b600081359050610c5f81610c39565b92915050565b60008060408385031215610c7c57610c7b610bcc565b5b6000610c8a85828601610c1a565b9250506020610c9b85828601610c50565b9150509250929050565b610cae81610bf1565b82525050565b6000602082019050610cc96000830184610ca5565b92915050565b600060208284031215610ce557610ce4610bcc565b5b6000610cf384828501610c1a565b91505092915050565b610d0581610c2f565b82525050565b6000602082019050610d206000830184610cfc565b92915050565b600082825260208201905092915050565b7f4e6f7420496e6974207965742121210000000000000000000000000000000000600082015250565b6000610d6d600f83610d26565b9150610d7882610d37565b602082019050919050565b60006020820190508181036000830152610d9c81610d60565b9050919050565b7f416d6f756e74206d7573742062652067726561746572207468616e2030000000600082015250565b6000610dd9601d83610d26565b9150610de482610da3565b602082019050919050565b60006020820190508181036000830152610e0881610dcc565b9050919050565b7f43616e27742073656e6420746f20307830302e2e206164647265737300000000600082015250565b6000610e45601c83610d26565b9150610e5082610e0f565b602082019050919050565b60006020820190508181036000830152610e7481610e38565b9050919050565b7f4e487b7100000000000000000000000000000000000000000000000000000000600052601160045260246000fd5b6000610eb582610c2f565b9150610ec083610c2f565b9250828202610ece81610c2f565b91508282048414831517610ee557610ee4610e7b565b5b5092915050565b7f4e487b7100000000000000000000000000000000000000000000000000000000600052601260045260246000fd5b6000610f2682610c2f565b9150610f3183610c2f565b925082610f4157610f40610eec565b5b828204905092915050565b6000610f5782610c2f565b9150610f6283610c2f565b9250828203905081811115610f7a57610f79610e7b565b5b92915050565b6000610f8b82610c2f565b9150610f9683610c2f565b9250828201905080821115610fae57610fad610e7b565b5b92915050565b6000606082019050610fc96000830186610ca5565b610fd66020830185610ca5565b610fe36040830184610cfc565b949350505050565b60008115159050919050565b61100081610feb565b811461100b57600080fd5b50565b60008151905061101d81610ff7565b92915050565b60006020828403121561103957611038610bcc565b5b60006110478482850161100e565b91505092915050565b7f546f6b656e207472616e73666572206661696c65640000000000000000000000600082015250565b6000611086601583610d26565b915061109182611050565b602082019050919050565b600060208201905081810360008301526110b581611079565b9050919050565b7f4f6e6c79206f776e65722063616e2074616b6520666565730000000000000000600082015250565b60006110f2601883610d26565b91506110fd826110bc565b602082019050919050565b60006020820190508181036000830152611121816110e5565b9050919050565b600060408201905061113d6000830185610ca5565b61114a6020830184610cfc565b9392505050565b7f46656573207472616e73666572206661696c6564000000000000000000000000600082015250565b6000611187601483610d26565b915061119282611151565b602082019050919050565b600060208201905081810360008301526111b68161117a565b9050919050565b7f616c726561647920696e697469616c697a656400000000000000000000000000600082015250565b60006111f3601383610d26565b91506111fe826111bd565b602082019050919050565b60006020820190508181036000830152611222816111e6565b9050919050565b7f4e6f7420656e6f75676820616d6f756e7420746f207769746864726177000000600082015250565b600061125f601d83610d26565b915061126a82611229565b602082019050919050565b6000602082019050818103600083015261128e81611252565b905091905056fea264697066735822122025c38eaed9d2f9b9c10dbf4ecd1fed1e456a457c8df88c83c07e8e8f528e6b1964736f6c63430008120033",
  "linkReferences": {},
  "deployedLinkReferences": {}
}