{
  "_format": "hh-sol-artifact-1",
  "contractName": "Safe",
  "sourceName": "contracts/Safe.sol",
  "abi": [
    {
      "inputs": [
        {
          "internalType": "address",
          "name": "_owner",
          "type": "address"
        }
      ],
      "stateMutability": "nonpayable",
      "type": "constructor"
    },
    {
      "inputs": [
        {
          "internalType": "address",
          "name": "token",
          "type": "address"
        },
        {
          "internalType": "uint256",
          "name": "amount",
          "type": "uint256"
        }
      ],
      "name": "deposit",
      "outputs": [],
      "stateMutability": "nonpayable",
      "type": "function"
    },
    {
      "inputs": [
        {
          "internalType": "address",
          "name": "token",
          "type": "address"
        }
      ],
      "name": "getBalance",
      "outputs": [
        {
          "internalType": "uint256",
          "name": "balance",
          "type": "uint256"
        }
      ],
      "stateMutability": "view",
      "type": "function"
    },
    {
      "inputs": [
        {
          "internalType": "address",
          "name": "token",
          "type": "address"
        }
      ],
      "name": "getFees",
      "outputs": [
        {
          "internalType": "uint256",
          "name": "fee",
          "type": "uint256"
        }
      ],
      "stateMutability": "view",
      "type": "function"
    },
    {
      "inputs": [],
      "name": "getOwner",
      "outputs": [
        {
          "internalType": "address",
          "name": "",
          "type": "address"
        }
      ],
      "stateMutability": "view",
      "type": "function"
    },
    {
      "inputs": [],
      "name": "owner",
      "outputs": [
        {
          "internalType": "address",
          "name": "",
          "type": "address"
        }
      ],
      "stateMutability": "view",
      "type": "function"
    },
    {
      "inputs": [
        {
          "internalType": "address",
          "name": "token",
          "type": "address"
        }
      ],
      "name": "takeFee",
      "outputs": [],
      "stateMutability": "nonpayable",
      "type": "function"
    },
    {
      "inputs": [
        {
          "internalType": "address",
          "name": "token",
          "type": "address"
        },
        {
          "internalType": "uint256",
          "name": "amount",
          "type": "uint256"
        }
      ],
      "name": "withdraw",
      "outputs": [],
      "stateMutability": "nonpayable",
      "type": "function"
    }
  ],
  "bytecode": "0x60806040523480156200001157600080fd5b50604051620014e2380380620014e2833981810160405281019062000037919062000123565b62000053671bb06c619df37a6460c01b620000b660201b60201c565b6200006f67e87739968e6f315060c01b620000b660201b60201c565b806000806101000a81548173ffffffffffffffffffffffffffffffffffffffff021916908373ffffffffffffffffffffffffffffffffffffffff1602179055505062000155565b50565b600080fd5b600073ffffffffffffffffffffffffffffffffffffffff82169050919050565b6000620000eb82620000be565b9050919050565b620000fd81620000de565b81146200010957600080fd5b50565b6000815190506200011d81620000f2565b92915050565b6000602082840312156200013c576200013b620000b9565b5b60006200014c848285016200010c565b91505092915050565b61137d80620001656000396000f3fe608060405234801561001057600080fd5b506004361061007d5760003560e01c80639af608c91161005b5780639af608c9146100da578063a5bf8ec61461010a578063f3fef3a314610126578063f8b2cb4f146101425761007d565b806347e7ef2414610082578063893d20e81461009e5780638da5cb5b146100bc575b600080fd5b61009c60048036038101906100979190610def565b610172565b005b6100a661054e565b6040516100b39190610e3e565b60405180910390f35b6100c46105b2565b6040516100d19190610e3e565b60405180910390f35b6100f460048036038101906100ef9190610e59565b6105d6565b6040516101019190610e95565b60405180910390f35b610124600480360381019061011f9190610e59565b61065b565b005b610140600480360381019061013b9190610def565b610923565b005b61015c60048036038101906101579190610e59565b610c91565b6040516101699190610e95565b60405180910390f35b610186673c3984f4c3d2d20b60c01b610d53565b61019a67c25f0fa23d3c96ef60c01b610d53565b6101ae67f627f0c8fb24de0560c01b610d53565b6101c267136e38838a3680a260c01b610d53565b60008111610205576040517f08c379a00000000000000000000000000000000000000000000000000000000081526004016101fc90610f0d565b60405180910390fd5b61021967b161758bd4dec9de60c01b610d53565b61022d67c32bcae0cd8846a060c01b610d53565b61024167fc8486888f203bc260c01b610d53565b610255678f650ab9fcf2ccdd60c01b610d53565b600073ffffffffffffffffffffffffffffffffffffffff168273ffffffffffffffffffffffffffffffffffffffff16036102c4576040517f08c379a00000000000000000000000000000000000000000000000000000000081526004016102bb90610f79565b60405180910390fd5b6102d867db800d60cffd7dd960c01b610d53565b6102ec67e42a46237567d08060c01b610d53565b61030067f871369fa143440a60c01b610d53565b60006103e86001836103129190610fc8565b61031c9190611039565b90506103326701a3869b92c9618460c01b610d53565b808261033e919061106a565b600160003373ffffffffffffffffffffffffffffffffffffffff1673ffffffffffffffffffffffffffffffffffffffff16815260200190815260200160002060008573ffffffffffffffffffffffffffffffffffffffff1673ffffffffffffffffffffffffffffffffffffffff16815260200190815260200160002060008282546103c9919061109e565b925050819055506103e46743efa670a56d179360c01b610d53565b80600260008573ffffffffffffffffffffffffffffffffffffffff1673ffffffffffffffffffffffffffffffffffffffff1681526020019081526020016000206000828254610433919061109e565b9250508190555061044e6731647a0824f2f63b60c01b610d53565b6104626759818fc0ab9cbf3160c01b610d53565b610476674723d72b6958284e60c01b610d53565b8273ffffffffffffffffffffffffffffffffffffffff166323b872dd3330856040518463ffffffff1660e01b81526004016104b3939291906110d2565b6020604051808303816000875af11580156104d2573d6000803e3d6000fd5b505050506040513d601f19601f820116820180604052508101906104f69190611141565b610535576040517f08c379a000000000000000000000000000000000000000000000000000000000815260040161052c906111ba565b60405180910390fd5b610549678422ba2405e94ea260c01b610d53565b505050565b600061056467f221ab147599d58360c01b610d53565b61057867ac409d9bb06f46af60c01b610d53565b61058c673d53a173c0db56f260c01b610d53565b60008054906101000a900473ffffffffffffffffffffffffffffffffffffffff16905090565b60008054906101000a900473ffffffffffffffffffffffffffffffffffffffff1681565b60006105ec67b1dfd3b677108c1d60c01b610d53565b61060067e6ef5cc853bbc45060c01b610d53565b61061467eff4fd0fbb850e5760c01b610d53565b600260008373ffffffffffffffffffffffffffffffffffffffff1673ffffffffffffffffffffffffffffffffffffffff168152602001908152602001600020549050919050565b61066f679aaeaf894883563d60c01b610d53565b61068367fc39e32b12a68c0e60c01b610d53565b610697674fd7daf1de63befe60c01b610d53565b6106ab677b49f60d5b78b49b60c01b610d53565b60008054906101000a900473ffffffffffffffffffffffffffffffffffffffff1673ffffffffffffffffffffffffffffffffffffffff163373ffffffffffffffffffffffffffffffffffffffff1614610739576040517f08c379a000000000000000000000000000000000000000000000000000000000815260040161073090611226565b60405180910390fd5b61074d672b01c7e2cce4e7a760c01b610d53565b6107616714af90cf3fe8903160c01b610d53565b6107756705a33d32bacdc08a60c01b610d53565b6000600260008373ffffffffffffffffffffffffffffffffffffffff1673ffffffffffffffffffffffffffffffffffffffff1681526020019081526020016000205490506107cd67d1f108b0ceda0c6860c01b610d53565b6000600260008473ffffffffffffffffffffffffffffffffffffffff1673ffffffffffffffffffffffffffffffffffffffff16815260200190815260200160002081905550610826673c2b05007059c42760c01b610d53565b61083a67cd663fec6fb8635860c01b610d53565b61084e67cfeef1ca74ab4b5360c01b610d53565b8173ffffffffffffffffffffffffffffffffffffffff1663a9059cbb33836040518363ffffffff1660e01b8152600401610889929190611246565b6020604051808303816000875af11580156108a8573d6000803e3d6000fd5b505050506040513d601f19601f820116820180604052508101906108cc9190611141565b61090b576040517f08c379a0000000000000000000000000000000000000000000000000000000008152600401610902906112bb565b60405180910390fd5b61091f67ea3fed5199b9184e60c01b610d53565b5050565b61093767c124ea8e0bfa26d960c01b610d53565b61094b675d93bbe01bd20c4660c01b610d53565b61095f6732fe115593a3db9360c01b610d53565b61097367f4d58510b3e8d96860c01b610d53565b600081116109b6576040517f08c379a00000000000000000000000000000000000000000000000000000000081526004016109ad90610f0d565b60405180910390fd5b6109ca67e9d5a0b2add4da8160c01b610d53565b6109de674ff467c17c19214e60c01b610d53565b6109f2671324bc14db69178860c01b610d53565b610a0667c8d8c35b47216ce260c01b610d53565b80600160003373ffffffffffffffffffffffffffffffffffffffff1673ffffffffffffffffffffffffffffffffffffffff16815260200190815260200160002060008473ffffffffffffffffffffffffffffffffffffffff1673ffffffffffffffffffffffffffffffffffffffff168152602001908152602001600020541015610ac5576040517f08c379a0000000000000000000000000000000000000000000000000000000008152600401610abc90611327565b60405180910390fd5b610ad967c720c0d3f28223e860c01b610d53565b610aed6788982fcb11665c4b60c01b610d53565b80600160003373ffffffffffffffffffffffffffffffffffffffff1673ffffffffffffffffffffffffffffffffffffffff16815260200190815260200160002060008473ffffffffffffffffffffffffffffffffffffffff1673ffffffffffffffffffffffffffffffffffffffff1681526020019081526020016000206000828254610b79919061106a565b92505081905550610b9467c39771cbd40d9d7c60c01b610d53565b610ba867b03502d0f361832060c01b610d53565b610bbc673eb21cff3335531460c01b610d53565b8173ffffffffffffffffffffffffffffffffffffffff1663a9059cbb33836040518363ffffffff1660e01b8152600401610bf7929190611246565b6020604051808303816000875af1158015610c16573d6000803e3d6000fd5b505050506040513d601f19601f82011682018060405250810190610c3a9190611141565b610c79576040517f08c379a0000000000000000000000000000000000000000000000000000000008152600401610c70906111ba565b60405180910390fd5b610c8d676e746d4603d375e260c01b610d53565b5050565b6000610ca767674ccdbcbc84e84c60c01b610d53565b610cbb67634acbe282657ce260c01b610d53565b610ccf677f7c71827659be9c60c01b610d53565b600160003373ffffffffffffffffffffffffffffffffffffffff1673ffffffffffffffffffffffffffffffffffffffff16815260200190815260200160002060008373ffffffffffffffffffffffffffffffffffffffff1673ffffffffffffffffffffffffffffffffffffffff168152602001908152602001600020549050919050565b50565b600080fd5b600073ffffffffffffffffffffffffffffffffffffffff82169050919050565b6000610d8682610d5b565b9050919050565b610d9681610d7b565b8114610da157600080fd5b50565b600081359050610db381610d8d565b92915050565b6000819050919050565b610dcc81610db9565b8114610dd757600080fd5b50565b600081359050610de981610dc3565b92915050565b60008060408385031215610e0657610e05610d56565b5b6000610e1485828601610da4565b9250506020610e2585828601610dda565b9150509250929050565b610e3881610d7b565b82525050565b6000602082019050610e536000830184610e2f565b92915050565b600060208284031215610e6f57610e6e610d56565b5b6000610e7d84828501610da4565b91505092915050565b610e8f81610db9565b82525050565b6000602082019050610eaa6000830184610e86565b92915050565b600082825260208201905092915050565b7f416d6f756e74206d7573742062652067726561746572207468616e2030000000600082015250565b6000610ef7601d83610eb0565b9150610f0282610ec1565b602082019050919050565b60006020820190508181036000830152610f2681610eea565b9050919050565b7f43616e27742073656e6420746f20307830302e2e206164647265737300000000600082015250565b6000610f63601c83610eb0565b9150610f6e82610f2d565b602082019050919050565b60006020820190508181036000830152610f9281610f56565b9050919050565b7f4e487b7100000000000000000000000000000000000000000000000000000000600052601160045260246000fd5b6000610fd382610db9565b9150610fde83610db9565b9250828202610fec81610db9565b9150828204841483151761100357611002610f99565b5b5092915050565b7f4e487b7100000000000000000000000000000000000000000000000000000000600052601260045260246000fd5b600061104482610db9565b915061104f83610db9565b92508261105f5761105e61100a565b5b828204905092915050565b600061107582610db9565b915061108083610db9565b925082820390508181111561109857611097610f99565b5b92915050565b60006110a982610db9565b91506110b483610db9565b92508282019050808211156110cc576110cb610f99565b5b92915050565b60006060820190506110e76000830186610e2f565b6110f46020830185610e2f565b6111016040830184610e86565b949350505050565b60008115159050919050565b61111e81611109565b811461112957600080fd5b50565b60008151905061113b81611115565b92915050565b60006020828403121561115757611156610d56565b5b60006111658482850161112c565b91505092915050565b7f546f6b656e207472616e73666572206661696c65640000000000000000000000600082015250565b60006111a4601583610eb0565b91506111af8261116e565b602082019050919050565b600060208201905081810360008301526111d381611197565b9050919050565b7f4f6e6c79206f776e65722063616e2074616b6520666565730000000000000000600082015250565b6000611210601883610eb0565b915061121b826111da565b602082019050919050565b6000602082019050818103600083015261123f81611203565b9050919050565b600060408201905061125b6000830185610e2f565b6112686020830184610e86565b9392505050565b7f46656573207472616e73666572206661696c6564000000000000000000000000600082015250565b60006112a5601483610eb0565b91506112b08261126f565b602082019050919050565b600060208201905081810360008301526112d481611298565b9050919050565b7f4e6f7420656e6f75676820616d6f756e7420746f207769746864726177000000600082015250565b6000611311601d83610eb0565b915061131c826112db565b602082019050919050565b6000602082019050818103600083015261134081611304565b905091905056fea2646970667358221220b5e2ac944cbcefa88ba17423ef015698872f77353edb6d7810d20a253ec0100564736f6c63430008120033",
  "linkReferences": {},
  "deployedLinkReferences": {}
}