{
  "_format": "hh-sol-artifact-1",
  "contractName": "ERC20",
  "sourceName": "contracts/ERC20.sol",
  "abi": [
    {
      "inputs": [],
      "stateMutability": "nonpayable",
      "type": "constructor"
    },
    {
      "anonymous": false,
      "inputs": [
        {
          "indexed": true,
          "internalType": "address",
          "name": "owner",
          "type": "address"
        },
        {
          "indexed": true,
          "internalType": "address",
          "name": "spender",
          "type": "address"
        },
        {
          "indexed": false,
          "internalType": "uint256",
          "name": "value",
          "type": "uint256"
        }
      ],
      "name": "Approval",
      "type": "event"
    },
    {
      "anonymous": false,
      "inputs": [
        {
          "indexed": true,
          "internalType": "address",
          "name": "from",
          "type": "address"
        },
        {
          "indexed": true,
          "internalType": "address",
          "name": "to",
          "type": "address"
        },
        {
          "indexed": false,
          "internalType": "uint256",
          "name": "value",
          "type": "uint256"
        }
      ],
      "name": "Transfer",
      "type": "event"
    },
    {
      "inputs": [
        {
          "internalType": "address",
          "name": "tokenOwner",
          "type": "address"
        },
        {
          "internalType": "address",
          "name": "spender",
          "type": "address"
        }
      ],
      "name": "allowance",
      "outputs": [
        {
          "internalType": "uint256",
          "name": "remaining",
          "type": "uint256"
        }
      ],
      "stateMutability": "view",
      "type": "function"
    },
    {
      "inputs": [
        {
          "internalType": "address",
          "name": "spender",
          "type": "address"
        },
        {
          "internalType": "uint256",
          "name": "tokens",
          "type": "uint256"
        }
      ],
      "name": "approve",
      "outputs": [
        {
          "internalType": "bool",
          "name": "success",
          "type": "bool"
        }
      ],
      "stateMutability": "nonpayable",
      "type": "function"
    },
    {
      "inputs": [
        {
          "internalType": "address",
          "name": "tokenOwner",
          "type": "address"
        }
      ],
      "name": "balanceOf",
      "outputs": [
        {
          "internalType": "uint256",
          "name": "balance",
          "type": "uint256"
        }
      ],
      "stateMutability": "view",
      "type": "function"
    },
    {
      "inputs": [],
      "name": "decimals",
      "outputs": [
        {
          "internalType": "uint8",
          "name": "",
          "type": "uint8"
        }
      ],
      "stateMutability": "pure",
      "type": "function"
    },
    {
      "inputs": [],
      "name": "totalSupply",
      "outputs": [
        {
          "internalType": "uint256",
          "name": "",
          "type": "uint256"
        }
      ],
      "stateMutability": "view",
      "type": "function"
    },
    {
      "inputs": [
        {
          "internalType": "address",
          "name": "to",
          "type": "address"
        },
        {
          "internalType": "uint256",
          "name": "tokens",
          "type": "uint256"
        }
      ],
      "name": "transfer",
      "outputs": [
        {
          "internalType": "bool",
          "name": "success",
          "type": "bool"
        }
      ],
      "stateMutability": "nonpayable",
      "type": "function"
    },
    {
      "inputs": [
        {
          "internalType": "address",
          "name": "from",
          "type": "address"
        },
        {
          "internalType": "address",
          "name": "to",
          "type": "address"
        },
        {
          "internalType": "uint256",
          "name": "tokens",
          "type": "uint256"
        }
      ],
      "name": "transferFrom",
      "outputs": [
        {
          "internalType": "bool",
          "name": "success",
          "type": "bool"
        }
      ],
      "stateMutability": "nonpayable",
      "type": "function"
    }
  ],
  "bytecode": "0x608060405234801561001057600080fd5b5061002b674dd618d53b909f8860c01b6100b360201b60201c565b610045673e75ca0fdcf68d1860c01b6100b360201b60201c565b612710600160003373ffffffffffffffffffffffffffffffffffffffff1673ffffffffffffffffffffffffffffffffffffffff168152602001908152602001600020819055506100a5674e79db140e26637560c01b6100b360201b60201c565b6127106000819055506100b6565b50565b610c05806100c56000396000f3fe608060405234801561001057600080fd5b506004361061007d5760003560e01c8063313ce5671161005b578063313ce5671461010057806370a082311461011e578063a9059cbb1461014e578063dd62ed3e1461017e5761007d565b8063095ea7b31461008257806318160ddd146100b257806323b872dd146100d0575b600080fd5b61009c600480360381019061009791906109a1565b6101ae565b6040516100a991906109fc565b60405180910390f35b6100ba610318565b6040516100c79190610a26565b60405180910390f35b6100ea60048036038101906100e59190610a41565b61035e565b6040516100f791906109fc565b60405180910390f35b6101086104d3565b6040516101159190610ab0565b60405180910390f35b61013860048036038101906101339190610acb565b610518565b6040516101459190610a26565b60405180910390f35b610168600480360381019061016391906109a1565b61059d565b60405161017591906109fc565b60405180910390f35b61019860048036038101906101939190610af8565b6105ee565b6040516101a59190610a26565b60405180910390f35b60006101c467d3c96ec67ea0765660c01b6106b1565b6101d867bd5ac96682d40fba60c01b6106b1565b81600260003373ffffffffffffffffffffffffffffffffffffffff1673ffffffffffffffffffffffffffffffffffffffff16815260200190815260200160002060008573ffffffffffffffffffffffffffffffffffffffff1673ffffffffffffffffffffffffffffffffffffffff1681526020019081526020016000208190555061026d67f53c43241dc7412b60c01b6106b1565b610281674cc0d4cb0bc2286260c01b6106b1565b8273ffffffffffffffffffffffffffffffffffffffff163373ffffffffffffffffffffffffffffffffffffffff167f8c5be1e5ebec7d5bd14f71427d1e84f3dd0314c0f7b2291e5b200ac8c7c3b925846040516102de9190610a26565b60405180910390a36102fa67490a21a0bbfa64ea60c01b6106b1565b61030e67937ba7b48d89b7d360c01b6106b1565b6001905092915050565b600061032e6736414218701c0e9e60c01b6106b1565b610342672f95fb3cfa909ad260c01b6106b1565b610356675299bf5d82ddb21660c01b6106b1565b600054905090565b60006103746731d58080222cd26d60c01b6106b1565b6103886758539747667bf20660c01b6106b1565b61041782600260008773ffffffffffffffffffffffffffffffffffffffff1673ffffffffffffffffffffffffffffffffffffffff16815260200190815260200160002060003373ffffffffffffffffffffffffffffffffffffffff1673ffffffffffffffffffffffffffffffffffffffff168152602001908152602001600020546106b490919063ffffffff16565b600260008673ffffffffffffffffffffffffffffffffffffffff1673ffffffffffffffffffffffffffffffffffffffff16815260200190815260200160002060003373ffffffffffffffffffffffffffffffffffffffff1673ffffffffffffffffffffffffffffffffffffffff168152602001908152602001600020819055506104ab67f09d1eb29a175e8c60c01b6106b1565b6104bf6779a57569a457ac0360c01b6106b1565b6104ca8484846106ca565b90509392505050565b60006104e96727d0a322c6f929bb60c01b6106b1565b6104fd67e6e7bc750f34320660c01b6106b1565b61051167dc704cb7dcfe9b8660c01b6106b1565b6003905090565b600061052e672cf50913b946f1eb60c01b6106b1565b61054267f553085e1687101760c01b6106b1565b6105566780f921cb8931336f60c01b6106b1565b600160008373ffffffffffffffffffffffffffffffffffffffff1673ffffffffffffffffffffffffffffffffffffffff168152602001908152602001600020549050919050565b60006105b367e2de73cb9e2e9d1f60c01b6106b1565b6105c767bb9294d971de239460c01b6106b1565b6105db67fafd72b53afe520160c01b6106b1565b6105e63384846106ca565b905092915050565b6000610604670cebba8da365082a60c01b6106b1565b610618672096ec66112e020a60c01b6106b1565b61062c679aa402df8bcfba7960c01b6106b1565b600260008473ffffffffffffffffffffffffffffffffffffffff1673ffffffffffffffffffffffffffffffffffffffff16815260200190815260200160002060008373ffffffffffffffffffffffffffffffffffffffff1673ffffffffffffffffffffffffffffffffffffffff16815260200190815260200160002054905092915050565b50565b600081836106c29190610b67565b905092915050565b60006106e06702770a1a84c43a9a60c01b6106b1565b6106f46769ef9a485439c24960c01b6106b1565b61074682600160008773ffffffffffffffffffffffffffffffffffffffff1673ffffffffffffffffffffffffffffffffffffffff168152602001908152602001600020546106b490919063ffffffff16565b600160008673ffffffffffffffffffffffffffffffffffffffff1673ffffffffffffffffffffffffffffffffffffffff1681526020019081526020016000208190555061079d67016ac973c6e6eef060c01b6106b1565b6107ef82600160008673ffffffffffffffffffffffffffffffffffffffff1673ffffffffffffffffffffffffffffffffffffffff168152602001908152602001600020546108f290919063ffffffff16565b600160008573ffffffffffffffffffffffffffffffffffffffff1673ffffffffffffffffffffffffffffffffffffffff168152602001908152602001600020819055506108466719ffd15a6df8db7160c01b6106b1565b61085a67dd74efa363f1ace460c01b6106b1565b8273ffffffffffffffffffffffffffffffffffffffff168473ffffffffffffffffffffffffffffffffffffffff167fddf252ad1be2c89b69c2b068fc378daa952ba7f163c4a11628f55a4df523b3ef846040516108b79190610a26565b60405180910390a36108d367728a3b84d1b0498560c01b6106b1565b6108e767e445c7f8baaf074860c01b6106b1565b600190509392505050565b600081836109009190610b9b565b905092915050565b600080fd5b600073ffffffffffffffffffffffffffffffffffffffff82169050919050565b60006109388261090d565b9050919050565b6109488161092d565b811461095357600080fd5b50565b6000813590506109658161093f565b92915050565b6000819050919050565b61097e8161096b565b811461098957600080fd5b50565b60008135905061099b81610975565b92915050565b600080604083850312156109b8576109b7610908565b5b60006109c685828601610956565b92505060206109d78582860161098c565b9150509250929050565b60008115159050919050565b6109f6816109e1565b82525050565b6000602082019050610a1160008301846109ed565b92915050565b610a208161096b565b82525050565b6000602082019050610a3b6000830184610a17565b92915050565b600080600060608486031215610a5a57610a59610908565b5b6000610a6886828701610956565b9350506020610a7986828701610956565b9250506040610a8a8682870161098c565b9150509250925092565b600060ff82169050919050565b610aaa81610a94565b82525050565b6000602082019050610ac56000830184610aa1565b92915050565b600060208284031215610ae157610ae0610908565b5b6000610aef84828501610956565b91505092915050565b60008060408385031215610b0f57610b0e610908565b5b6000610b1d85828601610956565b9250506020610b2e85828601610956565b9150509250929050565b7f4e487b7100000000000000000000000000000000000000000000000000000000600052601160045260246000fd5b6000610b728261096b565b9150610b7d8361096b565b9250828203905081811115610b9557610b94610b38565b5b92915050565b6000610ba68261096b565b9150610bb18361096b565b9250828201905080821115610bc957610bc8610b38565b5b9291505056fea26469706673582212206cb4af1a96bda1d7651bf7f1fa01c873cf116c1a92c9b5af59b21722871cf18464736f6c63430008120033",
  "linkReferences": {},
  "deployedLinkReferences": {}
}