{
  "_format": "hh-sol-artifact-1",
  "contractName": "SafeFactory",
  "sourceName": "contracts/SafeFactory.sol",
  "abi": [
    {
      "inputs": [],
      "stateMutability": "nonpayable",
      "type": "constructor"
    },
    {
      "inputs": [],
      "name": "deploySafe",
      "outputs": [],
      "stateMutability": "nonpayable",
      "type": "function"
    },
    {
      "inputs": [],
      "name": "deploySafeProxy",
      "outputs": [],
      "stateMutability": "nonpayable",
      "type": "function"
    },
    {
      "inputs": [],
      "name": "implementationOwner",
      "outputs": [
        {
          "internalType": "address",
          "name": "",
          "type": "address"
        }
      ],
      "stateMutability": "view",
      "type": "function"
    },
    {
      "inputs": [],
      "name": "owner",
      "outputs": [
        {
          "internalType": "address",
          "name": "",
          "type": "address"
        }
      ],
      "stateMutability": "view",
      "type": "function"
    },
    {
      "inputs": [],
      "name": "proxyAddress",
      "outputs": [
        {
          "internalType": "address",
          "name": "",
          "type": "address"
        }
      ],
      "stateMutability": "view",
      "type": "function"
    },
    {
      "inputs": [],
      "name": "safeAddress",
      "outputs": [
        {
          "internalType": "address",
          "name": "",
          "type": "address"
        }
      ],
      "stateMutability": "view",
      "type": "function"
    },
    {
      "inputs": [],
      "name": "safeImplementation",
      "outputs": [
        {
          "internalType": "address",
          "name": "",
          "type": "address"
        }
      ],
      "stateMutability": "view",
      "type": "function"
    },
    {
      "inputs": [
        {
          "internalType": "address",
          "name": "newImp",
          "type": "address"
        }
      ],
      "name": "updateImplementation",
      "outputs": [],
      "stateMutability": "nonpayable",
      "type": "function"
    }
  ],
  "bytecode": "0x608060405234801561001057600080fd5b5061002b67d31d22e5726c531b60c01b61008a60201b60201c565b610045678bce2809fbdaae0e60c01b61008a60201b60201c565b336000806101000a81548173ffffffffffffffffffffffffffffffffffffffff021916908373ffffffffffffffffffffffffffffffffffffffff16021790555061008d565b50565b612ee08061009c6000396000f3fe608060405234801561001057600080fd5b50600436106100885760003560e01c80638da5cb5b1161005b5780638da5cb5b146100ef5780639a8787bf1461010d578063c0225a0114610117578063ceb99fc41461013557610088565b8063025b22bc1461008d57806323f5c02d146100a95780635578110c146100c7578063644f7aac146100e5575b600080fd5b6100a760048036038101906100a291906108e6565b610153565b005b6100b16102ed565b6040516100be9190610922565b60405180910390f35b6100cf610313565b6040516100dc9190610922565b60405180910390f35b6100ed610339565b005b6100f7610426565b6040516101049190610922565b60405180910390f35b61011561044a565b005b61011f61081a565b60405161012c9190610922565b60405180910390f35b61013d610840565b60405161014a9190610922565b60405180910390f35b610167674a13c499f2ce905860c01b610866565b61017b67e2023f4cbac7d99760c01b610866565b61018f670a26f18bd461b02460c01b610866565b6101a367b219ee577305a51360c01b610866565b6101b7679ee0b855f51bf0a460c01b610866565b60008054906101000a900473ffffffffffffffffffffffffffffffffffffffff1673ffffffffffffffffffffffffffffffffffffffff163373ffffffffffffffffffffffffffffffffffffffff1614610245576040517f08c379a000000000000000000000000000000000000000000000000000000000815260040161023c9061099a565b60405180910390fd5b61025967e3364222007419d960c01b610866565b61026d675eb6cc2941c5721b60c01b610866565b610281678409090061b442e860c01b610866565b610295678ee3b936c6e2d7cb60c01b610866565b6102a967ef71ba74175077ad60c01b610866565b80600160006101000a81548173ffffffffffffffffffffffffffffffffffffffff021916908373ffffffffffffffffffffffffffffffffffffffff16021790555050565b600260009054906101000a900473ffffffffffffffffffffffffffffffffffffffff1681565b600360009054906101000a900473ffffffffffffffffffffffffffffffffffffffff1681565b61034d67e22c69e0efb237b560c01b610866565b610361677df09b3245da8cd460c01b610866565b610375671328b1f5998ecfb560c01b610866565b60008060009054906101000a900473ffffffffffffffffffffffffffffffffffffffff166040516103a590610869565b6103af9190610922565b604051809103906000f0801580156103cb573d6000803e3d6000fd5b5090506103e267bdccebabbd53743360c01b610866565b80600360006101000a81548173ffffffffffffffffffffffffffffffffffffffff021916908373ffffffffffffffffffffffffffffffffffffffff16021790555050565b60008054906101000a900473ffffffffffffffffffffffffffffffffffffffff1681565b61045e67b161e00f2b72691960c01b610866565b610472676f6842765276573860c01b610866565b610486679faa0ddfd93db99d60c01b610866565b600060405161049490610876565b604051809103906000f0801580156104b0573d6000803e3d6000fd5b5090506104c767c4665ed33d5da32860c01b610866565b80600260006101000a81548173ffffffffffffffffffffffffffffffffffffffff021916908373ffffffffffffffffffffffffffffffffffffffff16021790555061051c6728860c7db9dfd17f60c01b610866565b6105306703e3cf362927183d60c01b610866565b8073ffffffffffffffffffffffffffffffffffffffff16633659cfe6600160009054906101000a900473ffffffffffffffffffffffffffffffffffffffff166040518263ffffffff1660e01b815260040161058b9190610922565b600060405180830381600087803b1580156105a557600080fd5b505af11580156105b9573d6000803e3d6000fd5b505050506105d1675f5607df2466a63e60c01b610866565b6105e5678c2c76cf1841737460c01b610866565b8073ffffffffffffffffffffffffffffffffffffffff1663d46f7b5e600260009054906101000a900473ffffffffffffffffffffffffffffffffffffffff1660008054906101000a900473ffffffffffffffffffffffffffffffffffffffff166040518363ffffffff1660e01b81526004016106629291906109ba565b600060405180830381600087803b15801561067c57600080fd5b505af1158015610690573d6000803e3d6000fd5b505050506106a86709cdbab54a1a2a2860c01b610866565b8073ffffffffffffffffffffffffffffffffffffffff16631ab0093a600260009054906101000a900473ffffffffffffffffffffffffffffffffffffffff166040518263ffffffff1660e01b81526004016107039190610922565b602060405180830381865afa158015610720573d6000803e3d6000fd5b505050506040513d601f19601f8201168201806040525081019061074491906109f8565b600460006101000a81548173ffffffffffffffffffffffffffffffffffffffff021916908373ffffffffffffffffffffffffffffffffffffffff16021790555061079867a3c5aa4357e6f58c60c01b610866565b6107ac67bcf8295362eba7a060c01b610866565b8073ffffffffffffffffffffffffffffffffffffffff16638f283970336040518263ffffffff1660e01b81526004016107e59190610922565b600060405180830381600087803b1580156107ff57600080fd5b505af1158015610813573d6000803e3d6000fd5b5050505050565b600460009054906101000a900473ffffffffffffffffffffffffffffffffffffffff1681565b600160009054906101000a900473ffffffffffffffffffffffffffffffffffffffff1681565b50565b6114e280610a2683390190565b610fa380611f0883390190565b600080fd5b600073ffffffffffffffffffffffffffffffffffffffff82169050919050565b60006108b382610888565b9050919050565b6108c3816108a8565b81146108ce57600080fd5b50565b6000813590506108e0816108ba565b92915050565b6000602082840312156108fc576108fb610883565b5b600061090a848285016108d1565b91505092915050565b61091c816108a8565b82525050565b60006020820190506109376000830184610913565b92915050565b600082825260208201905092915050565b7f4f6e6c79206f77656e65722063616e20646f2074686973202121210000000000600082015250565b6000610984601b8361093d565b915061098f8261094e565b602082019050919050565b600060208201905081810360008301526109b381610977565b9050919050565b60006040820190506109cf6000830185610913565b6109dc6020830184610913565b9392505050565b6000815190506109f2816108ba565b92915050565b600060208284031215610a0e57610a0d610883565b5b6000610a1c848285016109e3565b9150509291505056fe60806040523480156200001157600080fd5b50604051620014e2380380620014e2833981810160405281019062000037919062000123565b620000536730fe19e8dad7582f60c01b620000b660201b60201c565b6200006f673f19b8d446c1d4b060c01b620000b660201b60201c565b806000806101000a81548173ffffffffffffffffffffffffffffffffffffffff021916908373ffffffffffffffffffffffffffffffffffffffff1602179055505062000155565b50565b600080fd5b600073ffffffffffffffffffffffffffffffffffffffff82169050919050565b6000620000eb82620000be565b9050919050565b620000fd81620000de565b81146200010957600080fd5b50565b6000815190506200011d81620000f2565b92915050565b6000602082840312156200013c576200013b620000b9565b5b60006200014c848285016200010c565b91505092915050565b61137d80620001656000396000f3fe608060405234801561001057600080fd5b506004361061007d5760003560e01c80639af608c91161005b5780639af608c9146100da578063a5bf8ec61461010a578063f3fef3a314610126578063f8b2cb4f146101425761007d565b806347e7ef2414610082578063893d20e81461009e5780638da5cb5b146100bc575b600080fd5b61009c60048036038101906100979190610def565b610172565b005b6100a661054e565b6040516100b39190610e3e565b60405180910390f35b6100c46105b2565b6040516100d19190610e3e565b60405180910390f35b6100f460048036038101906100ef9190610e59565b6105d6565b6040516101019190610e95565b60405180910390f35b610124600480360381019061011f9190610e59565b61065b565b005b610140600480360381019061013b9190610def565b610923565b005b61015c60048036038101906101579190610e59565b610c91565b6040516101699190610e95565b60405180910390f35b61018667ac409d9bb06f46af60c01b610d53565b61019a673d53a173c0db56f260c01b610d53565b6101ae673c3984f4c3d2d20b60c01b610d53565b6101c267c25f0fa23d3c96ef60c01b610d53565b60008111610205576040517f08c379a00000000000000000000000000000000000000000000000000000000081526004016101fc90610f0d565b60405180910390fd5b61021967f627f0c8fb24de0560c01b610d53565b61022d67136e38838a3680a260c01b610d53565b61024167b161758bd4dec9de60c01b610d53565b61025567c32bcae0cd8846a060c01b610d53565b600073ffffffffffffffffffffffffffffffffffffffff168273ffffffffffffffffffffffffffffffffffffffff16036102c4576040517f08c379a00000000000000000000000000000000000000000000000000000000081526004016102bb90610f79565b60405180910390fd5b6102d867fc8486888f203bc260c01b610d53565b6102ec678f650ab9fcf2ccdd60c01b610d53565b61030067db800d60cffd7dd960c01b610d53565b60006103e86001836103129190610fc8565b61031c9190611039565b905061033267e42a46237567d08060c01b610d53565b808261033e919061106a565b600160003373ffffffffffffffffffffffffffffffffffffffff1673ffffffffffffffffffffffffffffffffffffffff16815260200190815260200160002060008573ffffffffffffffffffffffffffffffffffffffff1673ffffffffffffffffffffffffffffffffffffffff16815260200190815260200160002060008282546103c9919061109e565b925050819055506103e467f871369fa143440a60c01b610d53565b80600260008573ffffffffffffffffffffffffffffffffffffffff1673ffffffffffffffffffffffffffffffffffffffff1681526020019081526020016000206000828254610433919061109e565b9250508190555061044e6701a3869b92c9618460c01b610d53565b6104626743efa670a56d179360c01b610d53565b6104766731647a0824f2f63b60c01b610d53565b8273ffffffffffffffffffffffffffffffffffffffff166323b872dd3330856040518463ffffffff1660e01b81526004016104b3939291906110d2565b6020604051808303816000875af11580156104d2573d6000803e3d6000fd5b505050506040513d601f19601f820116820180604052508101906104f69190611141565b610535576040517f08c379a000000000000000000000000000000000000000000000000000000000815260040161052c906111ba565b60405180910390fd5b6105496759818fc0ab9cbf3160c01b610d53565b505050565b6000610564671bb06c619df37a6460c01b610d53565b61057867e87739968e6f315060c01b610d53565b61058c67f221ab147599d58360c01b610d53565b60008054906101000a900473ffffffffffffffffffffffffffffffffffffffff16905090565b60008054906101000a900473ffffffffffffffffffffffffffffffffffffffff1681565b60006105ec67634acbe282657ce260c01b610d53565b610600677f7c71827659be9c60c01b610d53565b61061467b1dfd3b677108c1d60c01b610d53565b600260008373ffffffffffffffffffffffffffffffffffffffff1673ffffffffffffffffffffffffffffffffffffffff168152602001908152602001600020549050919050565b61066f673eb21cff3335531460c01b610d53565b610683676e746d4603d375e260c01b610d53565b610697679aaeaf894883563d60c01b610d53565b6106ab67fc39e32b12a68c0e60c01b610d53565b60008054906101000a900473ffffffffffffffffffffffffffffffffffffffff1673ffffffffffffffffffffffffffffffffffffffff163373ffffffffffffffffffffffffffffffffffffffff1614610739576040517f08c379a000000000000000000000000000000000000000000000000000000000815260040161073090611226565b60405180910390fd5b61074d674fd7daf1de63befe60c01b610d53565b610761677b49f60d5b78b49b60c01b610d53565b610775672b01c7e2cce4e7a760c01b610d53565b6000600260008373ffffffffffffffffffffffffffffffffffffffff1673ffffffffffffffffffffffffffffffffffffffff1681526020019081526020016000205490506107cd6714af90cf3fe8903160c01b610d53565b6000600260008473ffffffffffffffffffffffffffffffffffffffff1673ffffffffffffffffffffffffffffffffffffffff168152602001908152602001600020819055506108266705a33d32bacdc08a60c01b610d53565b61083a67d1f108b0ceda0c6860c01b610d53565b61084e673c2b05007059c42760c01b610d53565b8173ffffffffffffffffffffffffffffffffffffffff1663a9059cbb33836040518363ffffffff1660e01b8152600401610889929190611246565b6020604051808303816000875af11580156108a8573d6000803e3d6000fd5b505050506040513d601f19601f820116820180604052508101906108cc9190611141565b61090b576040517f08c379a0000000000000000000000000000000000000000000000000000000008152600401610902906112bb565b60405180910390fd5b61091f67cd663fec6fb8635860c01b610d53565b5050565b610937674723d72b6958284e60c01b610d53565b61094b678422ba2405e94ea260c01b610d53565b61095f67c124ea8e0bfa26d960c01b610d53565b610973675d93bbe01bd20c4660c01b610d53565b600081116109b6576040517f08c379a00000000000000000000000000000000000000000000000000000000081526004016109ad90610f0d565b60405180910390fd5b6109ca6732fe115593a3db9360c01b610d53565b6109de67f4d58510b3e8d96860c01b610d53565b6109f267e9d5a0b2add4da8160c01b610d53565b610a06674ff467c17c19214e60c01b610d53565b80600160003373ffffffffffffffffffffffffffffffffffffffff1673ffffffffffffffffffffffffffffffffffffffff16815260200190815260200160002060008473ffffffffffffffffffffffffffffffffffffffff1673ffffffffffffffffffffffffffffffffffffffff168152602001908152602001600020541015610ac5576040517f08c379a0000000000000000000000000000000000000000000000000000000008152600401610abc90611327565b60405180910390fd5b610ad9671324bc14db69178860c01b610d53565b610aed67c8d8c35b47216ce260c01b610d53565b80600160003373ffffffffffffffffffffffffffffffffffffffff1673ffffffffffffffffffffffffffffffffffffffff16815260200190815260200160002060008473ffffffffffffffffffffffffffffffffffffffff1673ffffffffffffffffffffffffffffffffffffffff1681526020019081526020016000206000828254610b79919061106a565b92505081905550610b9467c720c0d3f28223e860c01b610d53565b610ba86788982fcb11665c4b60c01b610d53565b610bbc67c39771cbd40d9d7c60c01b610d53565b8173ffffffffffffffffffffffffffffffffffffffff1663a9059cbb33836040518363ffffffff1660e01b8152600401610bf7929190611246565b6020604051808303816000875af1158015610c16573d6000803e3d6000fd5b505050506040513d601f19601f82011682018060405250810190610c3a9190611141565b610c79576040517f08c379a0000000000000000000000000000000000000000000000000000000008152600401610c70906111ba565b60405180910390fd5b610c8d67b03502d0f361832060c01b610d53565b5050565b6000610ca767cfeef1ca74ab4b5360c01b610d53565b610cbb67ea3fed5199b9184e60c01b610d53565b610ccf67674ccdbcbc84e84c60c01b610d53565b600160003373ffffffffffffffffffffffffffffffffffffffff1673ffffffffffffffffffffffffffffffffffffffff16815260200190815260200160002060008373ffffffffffffffffffffffffffffffffffffffff1673ffffffffffffffffffffffffffffffffffffffff168152602001908152602001600020549050919050565b50565b600080fd5b600073ffffffffffffffffffffffffffffffffffffffff82169050919050565b6000610d8682610d5b565b9050919050565b610d9681610d7b565b8114610da157600080fd5b50565b600081359050610db381610d8d565b92915050565b6000819050919050565b610dcc81610db9565b8114610dd757600080fd5b50565b600081359050610de981610dc3565b92915050565b60008060408385031215610e0657610e05610d56565b5b6000610e1485828601610da4565b9250506020610e2585828601610dda565b9150509250929050565b610e3881610d7b565b82525050565b6000602082019050610e536000830184610e2f565b92915050565b600060208284031215610e6f57610e6e610d56565b5b6000610e7d84828501610da4565b91505092915050565b610e8f81610db9565b82525050565b6000602082019050610eaa6000830184610e86565b92915050565b600082825260208201905092915050565b7f416d6f756e74206d7573742062652067726561746572207468616e2030000000600082015250565b6000610ef7601d83610eb0565b9150610f0282610ec1565b602082019050919050565b60006020820190508181036000830152610f2681610eea565b9050919050565b7f43616e27742073656e6420746f20307830302e2e206164647265737300000000600082015250565b6000610f63601c83610eb0565b9150610f6e82610f2d565b602082019050919050565b60006020820190508181036000830152610f9281610f56565b9050919050565b7f4e487b7100000000000000000000000000000000000000000000000000000000600052601160045260246000fd5b6000610fd382610db9565b9150610fde83610db9565b9250828202610fec81610db9565b9150828204841483151761100357611002610f99565b5b5092915050565b7f4e487b7100000000000000000000000000000000000000000000000000000000600052601260045260246000fd5b600061104482610db9565b915061104f83610db9565b92508261105f5761105e61100a565b5b828204905092915050565b600061107582610db9565b915061108083610db9565b925082820390508181111561109857611097610f99565b5b92915050565b60006110a982610db9565b91506110b483610db9565b92508282019050808211156110cc576110cb610f99565b5b92915050565b60006060820190506110e76000830186610e2f565b6110f46020830185610e2f565b6111016040830184610e86565b949350505050565b60008115159050919050565b61111e81611109565b811461112957600080fd5b50565b60008151905061113b81611115565b92915050565b60006020828403121561115757611156610d56565b5b60006111658482850161112c565b91505092915050565b7f546f6b656e207472616e73666572206661696c65640000000000000000000000600082015250565b60006111a4601583610eb0565b91506111af8261116e565b602082019050919050565b600060208201905081810360008301526111d381611197565b9050919050565b7f4f6e6c79206f776e65722063616e2074616b6520666565730000000000000000600082015250565b6000611210601883610eb0565b915061121b826111da565b602082019050919050565b6000602082019050818103600083015261123f81611203565b9050919050565b600060408201905061125b6000830185610e2f565b6112686020830184610e86565b9392505050565b7f46656573207472616e73666572206661696c6564000000000000000000000000600082015250565b60006112a5601483610eb0565b91506112b08261126f565b602082019050919050565b600060208201905081810360008301526112d481611298565b9050919050565b7f4e6f7420656e6f75676820616d6f756e7420746f207769746864726177000000600082015250565b6000611311601d83610eb0565b915061131c826112db565b602082019050919050565b6000602082019050818103600083015261134081611304565b905091905056fea2646970667358221220e6786c05de160f75a15826ff86131831dc7ff9e98b817dac1e0fe2c78bb0b46764736f6c6343000812003360806040523480156200001157600080fd5b506200002e677377cdd5b702c87760c01b6200007d60201b60201c565b6200004a67ea939f80d79a7a3a60c01b6200007d60201b60201c565b6200006667f4de18d00b264c7660c01b6200007d60201b60201c565b62000077336200008060201b60201c565b6200011c565b50565b6200009c67f1af0d92cade1b8660c01b6200007d60201b60201c565b620000b867203b0373eaacfd8c60c01b6200007d60201b60201c565b620000d467668a23e146f795ac60c01b6200007d60201b60201c565b60007f337c729c04082e3bdd94ba7d2b5a8a642f3a138702366a91707825373a2029ba9050620001156787ccbeb87b44f3aa60c01b6200007d60201b60201c565b8181555050565b610e77806200012c6000396000f3fe6080604052600436106100595760003560e01c80631ab0093a146100c25780633659cfe6146100ff5780635c60da1b146101285780638f28397014610153578063d46f7b5e1461017c578063f851a440146101a55761007c565b3661007c5761007267be275d483569c8d660c01b6101d0565b61007a6101d3565b005b61009067cb2f5af0b2e2bcdf60c01b6101d0565b6100a467229ae4249d8467f660c01b6101d0565b6100b8673a4c0e24f5d7d07360c01b6101d0565b6100c06101d3565b005b3480156100ce57600080fd5b506100e960048036038101906100e49190610c3a565b610221565b6040516100f69190610c76565b60405180910390f35b34801561010b57600080fd5b5061012660048036038101906101219190610c3a565b610451565b005b34801561013457600080fd5b5061013d6105a9565b60405161014a9190610c76565b60405180910390f35b34801561015f57600080fd5b5061017a60048036038101906101759190610c3a565b6105f4565b005b34801561018857600080fd5b506101a3600480360381019061019e9190610c91565b61074c565b005b3480156101b157600080fd5b506101ba610948565b6040516101c79190610c76565b60405180910390f35b50565b6101e7670de2196866ca73eb60c01b6101d0565b6101fb672ca251080be0eb7160c01b6101d0565b61020f67ba6a385ddef43f3d60c01b6101d0565b61021f61021a610993565b610a12565b565b600061023767555842f76f3ec99e60c01b6101d0565b61024b6705f3ffdb46413a0460c01b6101d0565b61025f67860fd42465fc1f6360c01b6101d0565b60006040516024016040516020818303038152906040527f893d20e8000000000000000000000000000000000000000000000000000000007bffffffffffffffffffffffffffffffffffffffffffffffffffffffff19166020820180517bffffffffffffffffffffffffffffffffffffffffffffffffffffffff838183161783525050505090506102fa67938d8f878c5bf17860c01b6101d0565b61030e678b66483e7db7c1c360c01b6101d0565b6000808473ffffffffffffffffffffffffffffffffffffffff16836040516103369190610d42565b600060405180830381855afa9150503d8060008114610371576040519150601f19603f3d011682016040523d82523d6000602084013e610376565b606091505b509150915061038f67c2dd7afa3d1f18a760c01b6101d0565b6103a367d991312e0506c8aa60c01b6101d0565b6103b767faad00cd2ddc759160c01b6101d0565b816103f7576040517f08c379a00000000000000000000000000000000000000000000000000000000081526004016103ee90610db6565b60405180910390fd5b61040b670b90d86366f622f860c01b6101d0565b61041f67e09d5db1000be4eb60c01b6101d0565b61043367a53f209897106d0360c01b6101d0565b808060200190518101906104479190610e14565b9350505050919050565b61046567b887cfac2849297c60c01b6101d0565b610479672e9306dc0ee9838d60c01b6101d0565b61048d679eaa87118685b59160c01b6101d0565b6104a1670b1c0aec5275284060c01b6101d0565b6104a9610a60565b73ffffffffffffffffffffffffffffffffffffffff163373ffffffffffffffffffffffffffffffffffffffff1603610561576104ef6790b34246de26a4a360c01b6101d0565b61050367ce900fcf35603b9d60c01b6101d0565b61051767d53c4d7b174b3d7f60c01b6101d0565b61052b67a2e0734fdd2fef4260c01b6101d0565b61053f6759521ad5b07430f560c01b6101d0565b61055367df904980f13c294560c01b6101d0565b61055c81610adf565b6105a6565b61057567fca59094be5761ad60c01b6101d0565b610589676b3026ce1fa145a060c01b6101d0565b61059d676bf9896cc576e52460c01b6101d0565b6105a56101d3565b5b50565b60006105bf67e39d6295d1992f5660c01b6101d0565b6105d367816b5af9f91b301a60c01b6101d0565b6105e7671986d7c03d2c1f7460c01b6101d0565b6105ef610993565b905090565b61060867a334781db5cc319e60c01b6101d0565b61061c672e9306dc0ee9838d60c01b6101d0565b610630679eaa87118685b59160c01b6101d0565b610644670b1c0aec5275284060c01b6101d0565b61064c610a60565b73ffffffffffffffffffffffffffffffffffffffff163373ffffffffffffffffffffffffffffffffffffffff1603610704576106926790b34246de26a4a360c01b6101d0565b6106a667ce900fcf35603b9d60c01b6101d0565b6106ba67a4fd08fa101ab06960c01b6101d0565b6106ce67ff7bfb7c388770d960c01b6101d0565b6106e2671466e3dbd871383060c01b6101d0565b6106f6670977278a81ecf1dc60c01b6101d0565b6106ff81610b5b565b610749565b61071867fca59094be5761ad60c01b6101d0565b61072c676b3026ce1fa145a060c01b6101d0565b610740676bf9896cc576e52460c01b6101d0565b6107486101d3565b5b50565b610760679e9c0d5fdc75586560c01b6101d0565b6107746709050106164d125360c01b6101d0565b61078867313807dfd103ef1260c01b6101d0565b60008160405160240161079b9190610c76565b6040516020818303038152906040527fc4d66de8000000000000000000000000000000000000000000000000000000007bffffffffffffffffffffffffffffffffffffffffffffffffffffffff19166020820180517bffffffffffffffffffffffffffffffffffffffffffffffffffffffff8381831617835250505050905061082e678e14efcc5267eb7760c01b6101d0565b6108426744faeb979de2ff5260c01b6101d0565b6000808473ffffffffffffffffffffffffffffffffffffffff168360405161086a9190610d42565b6000604051808303816000865af19150503d80600081146108a7576040519150601f19603f3d011682016040523d82523d6000602084013e6108ac565b606091505b50915091506108c5673658768f67a54b2960c01b6101d0565b6108d96712184f3c07403a9860c01b6101d0565b6108ed67af10806675a94c2960c01b6101d0565b8161092d576040517f08c379a000000000000000000000000000000000000000000000000000000000815260040161092490610db6565b60405180910390fd5b61094167ab97345e89c4144f60c01b6101d0565b5050505050565b600061095e672864f6ceaf89c63d60c01b6101d0565b6109726782af04d13e4c6ace60c01b6101d0565b610986672d6e6654ce46cf0a60c01b6101d0565b61098e610a60565b905090565b60006109a96799f22cea1e8337e160c01b6101d0565b6109bd67f68f763f3d9196f060c01b6101d0565b6109d1675990a843bdcd799f60c01b6101d0565b60007f7050c9e0f4ca769c69bd3a8ef740bc37934f8e2c036e5a723fd8ee048ed3f8c39050610a0a67e9a16a41c7dfcd4f60c01b6101d0565b805491505090565b610a266764f71f94fd1d7df460c01b6101d0565b610a3a675ce5d879cb821cb160c01b6101d0565b3660008037600080366000845af43d6000803e8060008114610a5b573d6000f35b3d6000fd5b6000610a76676e62c4ba7d58669260c01b6101d0565b610a8a6701ccc0fe1730089460c01b6101d0565b610a9e67e56ac9f18a954e3560c01b6101d0565b60007f337c729c04082e3bdd94ba7d2b5a8a642f3a138702366a91707825373a2029ba9050610ad7673fdad4d938bd2fcb60c01b6101d0565b805491505090565b610af3670213ccf1a9ef652160c01b6101d0565b610b0767b34628bd9c8c946560c01b6101d0565b610b1b67da6245d1918a818360c01b6101d0565b60007f7050c9e0f4ca769c69bd3a8ef740bc37934f8e2c036e5a723fd8ee048ed3f8c39050610b5467a0b33d631641454860c01b6101d0565b8181555050565b610b6f67f1af0d92cade1b8660c01b6101d0565b610b8367203b0373eaacfd8c60c01b6101d0565b610b9767668a23e146f795ac60c01b6101d0565b60007f337c729c04082e3bdd94ba7d2b5a8a642f3a138702366a91707825373a2029ba9050610bd06787ccbeb87b44f3aa60c01b6101d0565b8181555050565b600080fd5b600073ffffffffffffffffffffffffffffffffffffffff82169050919050565b6000610c0782610bdc565b9050919050565b610c1781610bfc565b8114610c2257600080fd5b50565b600081359050610c3481610c0e565b92915050565b600060208284031215610c5057610c4f610bd7565b5b6000610c5e84828501610c25565b91505092915050565b610c7081610bfc565b82525050565b6000602082019050610c8b6000830184610c67565b92915050565b60008060408385031215610ca857610ca7610bd7565b5b6000610cb685828601610c25565b9250506020610cc785828601610c25565b9150509250929050565b600081519050919050565b600081905092915050565b60005b83811015610d05578082015181840152602081019050610cea565b60008484015250505050565b6000610d1c82610cd1565b610d268185610cdc565b9350610d36818560208601610ce7565b80840191505092915050565b6000610d4e8284610d11565b915081905092915050565b600082825260208201905092915050565b7f43616c6c206661696c6564000000000000000000000000000000000000000000600082015250565b6000610da0600b83610d59565b9150610dab82610d6a565b602082019050919050565b60006020820190508181036000830152610dcf81610d93565b9050919050565b6000610de182610bdc565b9050919050565b610df181610dd6565b8114610dfc57600080fd5b50565b600081519050610e0e81610de8565b92915050565b600060208284031215610e2a57610e29610bd7565b5b6000610e3884828501610dff565b9150509291505056fea2646970667358221220b7ab4a3509b01941e892facd1163305da40c725a9e1a8ee27aac8c9d4c62420764736f6c63430008120033a2646970667358221220bc9c03664ba2317bb723d061ab1570d75c56723971e7d117cc807a131186693464736f6c63430008120033",
  "linkReferences": {},
  "deployedLinkReferences": {}
}